:1000000000F0FF1F41020000F1020000E9020000C1
:10001000F1020000F1020000F10200000000000007
:10002000000000000000000000000000F1020000DD
:10003000F102000000000000F1020000F1020000E7
:10004000F1020000F1020000F1020000F1020000E4
:10005000F1020000F1020000F1020000F1020000D4
:10006000F1020000F1020000F1020000F1020000C4
:10007000F1020000F1020000F1020000F1020000B4
:10008000F1020000F1020000F1020000F1020000A4
:10009000F1020000F1020000F1020000F102000094
:1000A000F1020000F1020000F1020000F102000084
:1000B000F1020000F1020000F1020000F102000074
:1000C000F1020000F1020000F1020000F102000064
:1000D000F1020000F1020000F1020000F102000054
:1000E000F1020000F1020000F1020000F102000044
:1000F000F1020000F1020000F1020000F102000034
:10010000F1020000F1020000F1020000F102000023
:10011000F1020000F1020000F1020000F102000013
:10012000F1020000F1020000F1020000F102000003
:10013000F1020000F1020000F1020000F1020000F3
:10014000F1020000F1020000F1020000F1020000E3
:10015000F1020000F1020000F1020000F1020000D3
:10016000F1020000F1020000F1020000F1020000C3
:10017000F1020000F1020000F1020000F1020000B3
:10018000F1020000F1020000F1020000F1020000A3
:10019000F1020000F1020000F1020000F102000093
:1001A000F1020000F1020000F1020000F102000083
:1001B000F1020000F1020000F1020000F102000073
:1001C000F1020000F1020000F1020000F102000063
:1001D000F1020000F1020000F1020000F102000053
:1001E000F1020000F1020000F1020000F102000043
:1001F000F1020000F1020000F1020000F102000033
:1002000065210000F1020000F1020000F10200008F
:10021000F102000031210000F1020000F1020000B3
:10022000F1020000F1020000F1020000F102000002
:10023000F1020000F1020000F1020000F1020000F2
:1002400080B586B000AF234B7B607B6883F3098861
:1002500000BF00F0FBF8204B7B6119E000233B61FD
:100260000EE07B691A683B699B001A447B695968F8
:100270003B699B000B4412681A603B6901333B6188
:100280007B699B683A699A42EBD37B690C337B614B
:100290007B69124A9342E1D3114BFB6014E00023C7
:1002A000BB6009E0FB681A68BB689B00134400222E
:1002B0001A60BB680133BB60FB685B68BA689A422E
:1002C000F0D3FB680833FB60FB68064A9342E6D331
:1002D00003F0D6F800F0FF1F60A700006CA7000035
:1002E0006CA700006CA7000080B400AF00BFFDE762
:1002F00080B400AF00BFFDE780B483B000AF78608A
:10030000396004E07B685A1C7A6000221A703B68EE
:100310005A1E3A60002BF5D100BF00BF0C37BD4616
:100320005DF8047B7047000080B483B000AF424B9F
:100330001B685B0903F00703052B30D801A252F8B4
:1003400023F000BF5D0300006303000069030000A9
:100350009F0300009103000097030000374B7B6070
:1003600020E0364B7B601DE0334BDB6B03F03F033B
:100370000133324A02FB03F33B602F4B9B6B1B099B
:1003800003F00F0301333A68B2FBF3F37B6009E03B
:100390002B4B7B6006E04FF400437B6002E00023C0
:1003A0007B6000BF244B1B6903F00703062B39D881
:1003B00001A252F823F000BFD5030000DD030000C6
:1003C000E7030000F703000001040000110400002F
:1003D0001B0400001B4A7B68136027E07B685B08F6
:1003E000184A136022E07B68174AA2FB03235B08CC
:1003F000144A13601AE07B689B08124A136015E0E8
:100400007B68114AA2FB03239B080E4A13600DE090
:100410007B68DB080B4A136008E07B681B09094A0C
:10042000136003E0074B00221A6000BF00BF0C37C7
:10043000BD465DF8047B70470000014000093D00A7
:10044000A08601000000FD1FABAAAAAA80B400AFDD
:10045000454B464AC3F8002C434B454AC3F8002C91
:10046000414B00229A60434BD3F88830414A43F411
:100470007003C2F888304FF0804301225A6100BFF8
:100480004FF080435B6903F00203022BF8D13A4B33
:1004900000221A61384B01225A61374B80229A613F
:1004A000354B8122DA61344B83221A62324B0022AF
:1004B0009A62314B5C221A632F4B1B682E4A43F021
:1004C0000203136000BF2C4B5B6803F00203002B98
:1004D000F9D0294B00225A63274B01229A63264BFD
:1004E0003122DA63244B1B68234A43F01003136064
:1004F00000BF214B5B6803F01003002BF9D01E4BAB
:100500001B681D4A43F0400313601B4B1B6803F03C
:10051000E0031A4A1360184B5B6803F0E002174BC4
:100520001B689A42F1D14FF08043D3F80021144B5D
:100530001340134A934212D0124B134ADA604FF021
:100540008043D3F800310F4A1B0C93604FF0804377
:100550000C4AD3F8003153600A4B0022DA6000BF26
:10056000BD465DF8047B70470010014051E5CC1A90
:10057000AE1A33E500ED00E0000001406407FD1F06
:10058000FF031F0000E0024054E5CC1A80B485B0A0
:1005900000AF78600023FB607B68002B1DD0002338
:1005A000BB6017E01049BA681346DB0013449B0098
:1005B0000B441B687A689A4209D1BA681346DB007B
:1005C00013449B000833084A1344FB6005E0BB68F2
:1005D0000133BB60BB68012BE4D9FB6818461437B4
:1005E000BD465DF8047B70470400FD1F80B586B0F2
:1005F00000AF7860396007F1100301211846FFF75A
:100600007BFE07F10C0301211846FFF775FE07F189
:10061000080301211846FFF76FFE7868FFF7B6FF61
:1006200078617B69002B02D03B68002B01D1042349
:1006300040E17B6803F14043A3F560331B0AFB7480
:10064000FB7C0F2B01D9042334E17B6901221A7052
:100650003B681B78002B02D0012B05D00AE03B7CC5
:1006600023F0E0033B7407E03B7C012262F3471375
:100670003B7401E004231DE13B7C43F001033B7428
:100680003B681B7A032B18D0032B1FDC002B02D0F6
:10069000022B09D01AE03B7A23F008033B723B7A25
:1006A00023F010033B7213E03B7A23F008033B7204
:1006B0003B7A43F010033B720AE03B7A43F00803B5
:1006C0003B723B7A43F010033B7201E00423F1E0FC
:1006D0003B685B7A032B2FD801A252F823F000BFAE
:1006E000F1060000030700001507000027070000BF
:1006F0003B7C23F008033B743B7A23F040033B72BE
:100700001CE03B7C43F008033B743B7A23F040033E
:100710003B7213E03B7C23F008033B743B7A43F0CD
:1007200040033B720AE03B7C43F008033B743B7A96
:1007300043F040033B7201E00423BBE03B689B7A3B
:10074000042B2AD801A252F823F000BF850700002D
:10075000610700006D070000790700008F070000A7
:100760003B7A012262F302033B7218E03B7A0222D9
:1007700062F302033B7212E03B7A032262F302034C
:100780003B720CE03B7A23F007033B7207E03B7AB5
:10079000042262F302033B7201E004238AE03B6817
:1007A000DB7A002B02D0012B05D009E03B7C23F043
:1007B00004033B7406E03B7C43F004033B7401E01C
:1007C000042377E03B685B7B012B04D13B7A43F049
:1007D00080033B7203E03B7A23F080033B723B686B
:1007E0001B7B012B04D13B7A43F020033B7203E0D7
:1007F0003B7A23F020033B727A68537843F08003FE
:1008000053703B685B681946786800F057F87B685E
:100810003A7C1A707B683A7B5A707B683A7A1A7114
:100820003B689B7B012B01D1012100E000217A680C
:10083000938961F3CF3393813B681B69002B38D0D8
:100840007A68938A43F0040393827A68938A43F028
:10085000080393827A68938A43F4006393823B6827
:100860001B691B78002B02D0012B06D00BE07A68A5
:10087000938A23F48073938207E07A68938A43F41F
:100880008073938201E0042314E03B681B695A786B
:100890007B681A763B681B699A787B685A767A6817
:1008A000938A43F0010393827A68938A43F00203A8
:1008B0009382002318461837BD4680BD80B584B0AA
:1008C00000AF78603960FFF72FFD7B68002B02D006
:1008D0003B68032B01D8042318E00E4B1A680E4B1B
:1008E000DB6903F0030322FA03F3FB60FA683B6859
:1008F000B2FBF3F39BB2013B9BB2C3F30E0399B27D
:100900007A68938961F30E039381002318461037A8
:10091000BD4680BD0000FD1F0000014080B483B0D3
:1009200000AF78600B46FB707B68002B01D104237D
:1009300014E0FB78002B02D0012B06D00BE07A6884
:10094000537843F00103537007E07A68537843F01B
:100950000203537001E0042300E0002318460C3723
:10096000BD465DF8047B704780B485B000AF786009
:100970000B46FB700023FB73FB78062B41D801A2CA
:1009800052F823F0A1090000AF090000BD090000E2
:10099000CB090000D9090000E7090000F5090000B3
:1009A0007B685B79C3F34013DBB2FB732AE07B689F
:1009B0005B79C3F30013DBB2FB7323E07B685B79E5
:1009C000C3F3C003DBB2FB731CE07B685B79C3F34A
:1009D0008003DBB2FB7315E07B685B79C3F34003F4
:1009E000DBB2FB730EE07B685B79C3F30003DBB221
:1009F000FB7307E07B689B8AC3F38023DBB2FB7346
:100A000000E000BFFB7B18461437BD465DF8047B51
:100A1000704700BF80B483B000AF78600B467B8026
:100A20007B68002B01D1042303E07B687A881A815C
:100A3000002318460C37BD465DF8047B7047000064
:100A400080B485B000AF78600023FB607B68002B2A
:100A50001ED00023BB6018E01149BA681346DB00C2
:100A600013449B000B4404331B687A689A4209D1F3
:100A7000BA681346DB0013449B000833084A13444A
:100A8000FB6005E0BB680133BB60BB68012BE3D9A9
:100A9000FB6818461437BD465DF8047B704700BFFD
:100AA0000400FD1F80B588B000AF7860396007F1A1
:100AB000140301211846FFF71FFC07F11003012161
:100AC0001846FFF719FC07F10C0301211846FFF740
:100AD00013FC07F1080301211846FFF70DFC7B68A2
:100AE00003F14043A3F560331B0AFB77FB7F0F2B19
:100AF00001D904239FE07868FFF7A2FFB861BB69C2
:100B0000002B02D03B68002B01D1042393E0BB698A
:100B100003221A703B681B78012B0ED83B7D042200
:100B200062F347133B7500BF3B7C43F020033B74EB
:100B30003B681B78012B18D101E004237BE03B6864
:100B40001B7A03F07F03DAB23B7B62F306033B734D
:100B50003B7B43F080033B733B685B7A03F07F038E
:100B6000DAB23B7A62F306033B723B7A43F08003CE
:100B70003B727B683A7D1A707B6800225A743B682E
:100B8000DB7A012B05D17A68537943F02003537146
:100B900004E07A68537923F0200353713B685B6863
:100BA0001946786800F04CF87B683A7C5A707B688C
:100BB0003A7B1A747B683A7A5A743B68DB68002B7C
:100BC00038D07A68938A43F0040393827A68938AD0
:100BD00043F0080393827A68938A43F40063938214
:100BE0003B68DB681B78002B02D0012B06D00BE0A2
:100BF0007A68938A23F48073938207E07A68938AF1
:100C000043F48073938201E0042314E03B68DB68C3
:100C10005A787B681A763B68DB689A787B685A76E4
:100C20007A68938A43F0010393827A68938A43F047
:100C300002039382002318462037BD4680BD000082
:100C400080B584B000AF786039600023FB73FFF794
:100C50006BFB7B68002B03D03B681B4A934201D996
:100C600004232CE07B685B7CC3F3C013DBB2FB7313
:100C70007A68537C43F080035374144B1A68144B06
:100C8000DB6903F0030322FA03F3BB60BA683B6835
:100C9000B2FBF3F39BB2013B9BB2C3F30E0399B2D9
:100CA0007A68938961F30E039381FB7B03F0010360
:100CB000D9B27A68537C61F3C71353740023184682
:100CC0001037BD4680BD00BF801A06000000FD1F22
:100CD0000000014080B485B000AF7860144B1B6801
:100CE000FB607B68002B01D104231BE07A685378FA
:100CF00043F0800353700FE07B685B78C3F3C0134D
:100D0000DBB2012B08D17B685B78C3F38013DBB2C5
:100D1000012B01D1002305E0FB685A1EFA60002B6D
:100D2000EAD1092318461437BD465DF8047B7047A5
:100D30000000FD1F80B485B000AF7860154B1B68C4
:100D4000FB607B68002B19D104231DE07B685B7876
:100D5000DBB203F03E03DAB27B685A707B685B78E3
:100D6000C3F3C013DBB2002B08D17B685B78C3F3FD
:100D70008013DBB2002B01D1002305E0FB685A1E73
:100D8000FA60002BE2D1092318461437BD465DF8FE
:100D9000047B70470000FD1F80B483B000AF786013
:100DA0000B46FB707B68002B01D1042304E0FB7829
:100DB0009AB27B681A81002318460C37BD465DF84D
:100DC000047B704780B485B000AF78600B46FB7041
:100DD0007B685B783B737B68002B01D1042315E0B3
:100DE000FB78002B05D101223B7B62F345133B735B
:100DF00004E000223B7B62F345133B733B7B23F013
:100E000040033B737B683A7B5A70002318461437C3
:100E1000BD465DF8047B704780B485B000AF786054
:100E20007B681B79C3F38013DBB2FB73FB7B184633
:100E30001437BD465DF8047B7047000080B485B070
:100E400000AF78600B46FB700023FB73FB780B2B25
:100E50007BD801A252F823F0890E0000970E000003
:100E6000A50E0000B30E0000C10E0000CF0E000062
:100E7000DD0E0000EB0E0000F90E0000070F000071
:100E8000150F0000230F00007B685B79C3F3C003DC
:100E9000DBB2FB735AE07B685B79C3F38003DBB2A0
:100EA000FB7353E07B685B79C3F34003DBB2FB73F6
:100EB0004CE07B685B79C3F30003DBB2FB7345E076
:100EC0007B689B8AC3F38023DBB2FB733EE07B68C5
:100ED0001B79C3F3C013DBB2FB7337E07B681B796C
:100EE000C3F34013DBB2FB7330E07B681B79C3F3C1
:100EF0004003DBB2FB7329E07B681B79C3F300037B
:100F0000DBB2FB7322E07B685B78C3F34003DBB2A8
:100F1000FB731BE07B685B78C3F30003DBB2FB73FE
:100F200014E07B685B78C3F3C013DBB2002B09D1FC
:100F30007B685B78C3F38013DBB2012B02D1012302
:100F4000FB7303E00023FB7300E000BFFB7B18464C
:100F50001437BD465DF8047B704700BF80B483B092
:100F600000AF78600B46FB707B68002B01D1042337
:100F70003DE0FB780B2B36D801A252F823F000BFDE
:100F8000B10F0000EB0F0000EB0F0000EB0F0000B3
:100F9000BD0F0000EB0F0000EB0F0000C90F0000B9
:100FA000EB0F0000EB0F0000D50F0000EB0F00006F
:100FB0007A68537943F08003537117E07A68938A13
:100FC00023F48063938211E07A68137923F002039B
:100FD00013710BE07B685B78DBB223F04103DAB27C
:100FE0007B685A7002E0042301E000BF002318462A
:100FF0000C37BD465DF8047B704700BF80B483B0FA
:1010000000AF0346FB71FB79322B00F2218101A274
:1010100052F823F0E1100000F1110000E910000087
:10102000F1100000F910000001110000091100008A
:1010300011110000191100002111000029110000F8
:101040003111000039110000411100004911000068
:1010500051110000591100006111000069110000D8
:101060007111000079110000811100008911000048
:101070009111000099110000A1110000A9110000B8
:10108000B1110000B9110000C1110000C911000028
:10109000D1110000D9110000E1110000E911000098
:1010A00055120000411200004912000039120000E0
:1010B0002912000031120000211200000912000064
:1010C0001112000019120000F911000001120000B5
:1010D0005512000055120000551200005512000074
:1010E000604B01221A70B6E05F4B01221A70B2E029
:1010F0005E4B01221A70AEE05D4B01221A70AAE02D
:101100005C4B01221A70A6E05B4B01221A70A2E030
:101110005A4B01221A709EE0594B01221A709AE034
:10112000584B01221A7096E0574B01221A7092E038
:10113000564B01221A708EE0554B01221A708AE03C
:10114000544B01221A7086E0534B01221A7082E040
:10115000524B01221A707EE0514B01221A707AE044
:10116000504B01221A7076E04F4B01221A7072E048
:101170004E4B01221A706EE04D4B01221A706AE04C
:101180004C4B01221A7066E04B4B01221A7062E050
:101190004A4B01221A705EE0494B01221A705AE054
:1011A000484B01221A7056E0474B01221A7052E058
:1011B000464B01221A704EE0454B01221A704AE05C
:1011C000444B01221A7046E0434B01221A7042E060
:1011D000424B01221A703EE0414B01221A703AE064
:1011E000404B01221A7036E03F4B01221A7032E068
:1011F0003E4B01221A702EE03D4B01221A702AE06C
:101200003C4B01221A7026E03B4B01221A7022E06F
:101210003A4B01221A701EE0394B01221A701AE073
:10122000384B01221A7016E0374B01221A7012E077
:10123000364B01221A700EE0354B01221A700AE07B
:10124000344B01221A7006E0334B01221A7002E07F
:10125000042301E000BF002318460C37BD465DF8AB
:10126000047B7047702078426020784240207842AA
:1012700044207842482078424C207842002078422E
:1012800004207842082078420C20784210207842CE
:1012900014207842182078421C207842202078427E
:1012A00024207842282078422C207842302078422E
:1012B00034207842382078423C20784240227842DC
:1012C00044227842482278424C22784220227842B6
:1012D00024227842282278422C2278420022784226
:1012E00004227842082278420C2278426820784210
:1012F000002478420424784210247842142478424E
:1013000018247842202478424024784244247842A9
:1013100050247842602478426424784280B483B0B8
:1013200000AF0346FB7197F90730002B0BDBFB790D
:1013300003F01F02074997F907305B09012000FA03
:1013400002F241F8232000BF0C37BD465DF8047B54
:10135000704700BF00E100E080B483B000AF0346F7
:10136000FB7197F90730002B0CDBFB7903F01F02B0
:10137000074997F907305B09012000FA02F2603350
:1013800041F8232000BF0C37BD465DF8047B704751
:1013900000E100E080B483B000AF03463960FB7128
:1013A00097F90730002B0ADB3B68DAB20C4997F952
:1013B00007301201D2B20B4483F800230AE03B68E5
:1013C000DAB20849FB7903F00F03043B1201D2B2F1
:1013D0000B441A7600BF0C37BD465DF8047B70479E
:1013E00000E100E000ED00E080B582B000AF002039
:1013F00000F01EF90E4B7B6002E07B68013B7B60D6
:101400000C4B1B7ADBB2022B02D17B68002BF4D190
:101410007B68002B04D0074B1B7ADBB2002B01D07A
:101420000A2300E0002318460837BD4680BD00BFF0
:10143000A08601000010064080B584B000AF78603F
:101440007B68002B01D10423C6E07B681B6803F096
:101450000303002B01D00223BEE0FFF7C5FF0346C4
:10146000002B01D00A23B7E07B68DB685C4A13607D
:101470007B681B695A4A53607B689B69584AD360F2
:101480007B685B69564A93607B68DB68002B03D1FD
:101490007B681B69002B0DD07B685B7A012B09D11F
:1014A0005B20FFF759FF5B20FFF738FF0F215B2020
:1014B000FFF770FF7B689B69002B03D17B685B693A
:1014C000002B0DD07B685B7A012B09D17020FFF7D0
:1014D00043FF7020FFF722FF0F217020FFF75AFF14
:1014E000404A7B681B6813607B681B79012B01D124
:1014F000012200E000223B7B62F300033B737B6828
:101500005B79012B01D1012200E000223B7B62F3D9
:1015100041033B737B689B79012B01D1012200E0E1
:1015200000223B7B62F382033B737B68DB79012BF8
:1015300001D1012200E000223B7B62F3C3033B7335
:101540007B681B7A072B41D801A252F823F000BF19
:10155000711500007B150000871500009315000031
:101560009F150000AB150000B7150000C315000063
:101570003B7B23F070033B732AE03B7B012262F349
:1015800006133B7324E03B7B022262F306133B739A
:101590001EE03B7B032262F306133B7318E03B7BA8
:1015A000042262F306133B7312E03B7B052262F3D5
:1015B00006133B730CE03B7B062262F306133B737E
:1015C00006E03B7B43F070033B7301E0042303E040
:1015D000044A3B7B5372002318461037BD4680BD3A
:1015E0006807FD1F0010064080B483B000AF0346BB
:1015F0000A46FB711346BB80BB88B3F5804F01D30D
:1016000004230DE0BB8803F00303002B01D0022369
:1016100006E0FA79BB881B04044913434B6000239E
:1016200018460C37BD465DF8047B70470010064035
:1016300080B483B000AF0346FB71FB79052B27D83C
:1016400001A252F823F000BF6116000069160000E5
:10165000711600007916000081160000891600003E
:10166000104B04221A7215E00E4B08221A7211E078
:101670000C4B10221A720DE00A4B20221A7209E05C
:10168000084B40221A7205E0064B80221A7201E0D4
:10169000042300E0002318460C37BD465DF8047BA8
:1016A000704700BF0010064080B487B000AF03460B
:1016B000FB71FB7903F01F03FB75FB7D012202FA2E
:1016C00003F33B61FB795B09FB73FA7B094B134422
:1016D0009B001A68F97B074B0B449B0019463B693A
:1016E00013430B60002318461C37BD465DF8047B8E
:1016F000704700BF0484011080B487B000AF034678
:10170000FB71FB7903F01F03FB75FB7D012202FADD
:1017100003F33B61FB795B09FB73FA7B084B1344D2
:101720009B001A683B6913403A699A4201D1012330
:1017300000E0002318461C37BD465DF8047B704767
:101740000C84011080B487B000AF0346FB71FB79B5
:1017500003F01F03FB75FB7D012202FA03F33B61DB
:10176000FB795B09FB73FA7B064B13449B001A461B
:101770003B691360002318461C37BD465DF8047BA7
:10178000704700BF1484011080B487B000AF0346D7
:10179000FB71FB7903F01F03FB75FB7D012202FA4D
:1017A00003F33B61FB795B09FB73FA7B0A4B134440
:1017B0009B0019683B69DA43F87B074B03449B00A5
:1017C000184601EA02030360002318461C37BD4691
:1017D0005DF8047B704700BF2484011080B584B09D
:1017E00000AF0346FB71FB79DA2B05D0DB2B07D169
:1017F0000F4BDB68FB6006E00D4B9B68FB6002E073
:101800000023FB6000BFFB791846FFF775FF034616
:10181000012B08D1FB791846FFF794FFFB68002BDA
:1018200001D0FB68984700BF1037BD4680BD00BFA0
:101830006807FD1F80B483B000AF0346FB7197F9C2
:101840000730002B0BDBFB7903F01F02074997F9E8
:1018500007305B09012000FA02F241F8232000BFA3
:101860000C37BD465DF8047B704700BF00E100E027
:1018700080B483B000AF0346FB7197F90730002BAB
:101880000CDBFB7903F01F02074997F907305B096E
:10189000012000FA02F2603341F8232000BF0C3728
:1018A000BD465DF8047B704700E100E080B483B082
:1018B00000AF03463960FB7197F90730002B0ADB54
:1018C0003B68DAB20C4997F907301201D2B20B44E7
:1018D00083F800230AE03B68DAB20849FB7903F099
:1018E0000F03043B1201D2B20B441A7600BF0C372F
:1018F000BD465DF8047B704700E100E000ED00E0CC
:1019000080B485B000AF78600023FB7316E0FA7BEB
:101910000F4913465B0013441B010B441B687A6894
:101920009A4208D1FA7B13465B0013441B01084A14
:101930001344043306E0FB7B0133FB73FB7B002B7A
:10194000E5D0002318461437BD465DF8047B704788
:101950004C00FD1F80B582B000AF786039607B68B5
:101960005B6AC3F3C073DBB2012B0BD17A68536A95
:1019700023F0004353623B689B68002B02D03B6816
:101980009B6898477B685B6AC3F38073DBB2012B6B
:101990000BD17A68536A23F0804353623B689B699A
:1019A000002B02D03B689B6998477B685B6AC3F356
:1019B0004073DBB2012B0BD17A68536A23F00053DA
:1019C00053623B68DB68002B02D03B68DB689847BA
:1019D0007B685B6AC3F30073DBB2012B0BD17A68BF
:1019E000536A23F0805353623B685B68002B02D03C
:1019F0003B685B6898477B685B6AC3F3C063DBB294
:101A0000012B0BD17A68536A23F0006353623B6861
:101A10001B68002B02D03B681B6898477B685B6A99
:101A2000C3F38063DBB2012B0BD17A68536A23F0D6
:101A3000806353623B681B69002B02D03B681B69C3
:101A400098477B685B6AC3F34063DBB2012B0BD121
:101A50007A68536A23F0007353623B68DB69002B9A
:101A600002D03B68DB6998477B685B6AC3F300631D
:101A7000DBB2012B0BD17A68536A23F08073536277
:101A80003B681B6A002B02D03B681B6A98477B6847
:101A90005B6AC3F3C043DBB2012B0BD17A68536A94
:101AA00023F4002353623B685B6A002B02D03B683F
:101AB0005B6A98477B685B6AC3F30043DBB2012B28
:101AC00006D13B689B6A002B02D03B689B6A984713
:101AD0007B685B6AC3F34043DBB2012B07D13B68F1
:101AE0005B69002B03D03B685B69984700BF00BF70
:101AF0000837BD4680BD80B582B000AF78607520E4
:101B0000FFF7B6FE7520FFF795FE0F217520FFF752
:101B1000CDFE00BF0837BD4680BD000080B400AFD9
:101B2000054A536823F00103536000231846BD465D
:101B30005DF8047B704700BF00D0034080B483B0E1
:101B400000AF78607B68074A934204D1064A136865
:101B500043F00103136000BF0C37BD465DF8047B02
:101B6000704700BF00C0064000D0034080B483B07F
:101B700000AF78607B68074A934204D1064A136835
:101B800023F00103136000BF0C37BD465DF8047BF2
:101B9000704700BF00C0064000D0034080B584B04D
:101BA00000AF786039607B68002B02D03B68002B67
:101BB00001D104237DE27868FFF7A2FEF860FB689C
:101BC000002B01D1042374E27A68936923F00103A6
:101BD00093613B681B7803F03F03D9B27A6893683E
:101BE00061F39F6393603B685B88C3F3090399B219
:101BF0007A68936861F3194393603B681B7903F03B
:101C00000103D9B27A68936861F38E3393603B68BD
:101C10005B7903F00103D9B27A68936861F34D33BD
:101C200093603B689B7903F00103D9B27A689368AB
:101C300061F30C3393603B68DB7903F00103D9B2A5
:101C40007A68936861F3CB2393603B681B7A03F057
:101C50000103D9B27A68936861F38A2393603B6881
:101C60005B7A03F00103D9B27A68936861F3492380
:101C700093603B689B7A03F00103D9B27A6893685A
:101C800061F3082393603B68DB7A03F00103D9B268
:101C90007A68936861F3C71393603B681B7B03F01A
:101CA0000103D9B27A68936861F3041393603B68C7
:101CB0005B7B03F00103D9B27A68936861F3C303D5
:101CC00093603B689B7B03F00103D9B27A68936809
:101CD00061F3820393603B68DB7B03F00103D9B2BD
:101CE0007A68936861F3410393603B681B7C03F05F
:101CF0000103D9B27A68936861F3000393603B688B
:101D00005B7C03F01F03D9B27A68D36861F38E233A
:101D1000D3603B689B7C03F01F03D9B27A68D36819
:101D200061F34913D3603B68DB7C03F01F03D9B236
:101D30007A68D36861F30403D3603B681B7D03F0CA
:101D40001F03D9B27A68D36861F39E63D3603B689E
:101D50005B7D03F01F03D9B27A68D36861F35953EE
:101D6000D3603B689B7D03F01F03D9B27A68D368C8
:101D700061F31443D3603B689A697B681A613B68DE
:101D8000DA697B685A613B6893F82530012B14BFF0
:101D900001230023DBB203F00103D9B27A68136A8E
:101DA00061F3596313623B6893F82630012B14BF2B
:101DB00001230023DBB203F00103D9B27A68136A6E
:101DC00061F3514313623B6893F8203003F00F0333
:101DD000D9B27A68136A61F30B2313623B6893F8F4
:101DE000213003F00F03D9B27A68136A61F3030359
:101DF00013623B6893F82230032B25D801A252F8D6
:101E000023F000BF151E0000211E00002F1E000041
:101E10003D1E00007A68136A23F03003136215E058
:101E20007A68136A012161F3051313620EE07A6880
:101E3000136A022161F30513136207E07A68136ADB
:101E400043F03003136201E0042332E13B689B6AF4
:101E5000002B00F0B0803B689B6A1B78012B14BFFD
:101E600001230023DBB203F00103D9B27A68136ABD
:101E700061F3DB6313623B689B6A5B78012B14BFE1
:101E800001230023DBB203F00103D9B27A68136A9D
:101E900061F39E7313623B689B6A9B78012B14BFAE
:101EA00001230023DBB203F00103D9B27A68136A7D
:101EB00061F35D7313623B689B6ADB78012B14BF8F
:101EC00001230023DBB203F00103D9B27A68136A5D
:101ED00061F31C7313623B689B6A1B79012B14BF6F
:101EE00001230023DBB203F00103D9B27A68136A3D
:101EF00061F39A6313623B689B6A5B79012B14BFA1
:101F000001230023DBB203F00103D9B27A68136A1C
:101F100061F3186313623B689B6A9B79012B14BFC2
:101F200001230023DBB203F00103D9B27A68136AFC
:101F300061F3555313623B689B6ADB79012B14BF35
:101F400001230023DBB203F00103D9B27A68136ADC
:101F500061F3145313623B689B6A1B7A012B14BF15
:101F600001230023DBB203F00103D9B27A68136ABC
:101F700061F3D34313623B689B6A5B7A012B14BF06
:101F800001230023DBB203F00103D9B27A68136A9C
:101F900061F3924313623B689B6A9B7A012B14BFE7
:101FA00001230023DBB203F00103D9B27A68136A7C
:101FB00061F3104313623B68DB6A002B36D03B6849
:101FC000DB6A1A68FB681A603B68DB6A5A68FB6860
:101FD0005A603B68DB6A9A68FB689A603B68DB6A18
:101FE000DA68FB68DA603B68DB6A1A69FB681A61C9
:101FF0003B68DB6A5A69FB685A613B68DB6A9A692D
:10200000FB689A613B68DB6ADA69FB68DA613B6806
:10201000DB6A1A6AFB681A623B68DB6A5A6AFB6809
:102020005A623B68DB6A9A6AFB689A623B6893F87B
:102030003030012B02D17868FFF75DFD3B6893F8E3
:102040002330002B14BF01230023DBB203F0010374
:10205000D9B27A68936961F3104393613B6893F84E
:102060002330002B01D1012100E000217A68936820
:1020700061F3861393603B6893F82430002B14BF00
:1020800001230023DBB203F00103D9B27A6893691C
:1020900061F3186393613B6893F82430002B01D1FE
:1020A000012100E000217A68936861F34513936091
:1020B000002318461037BD4680BD00BF80B483B0F2
:1020C00000AF78607A68936943F00103936100235D
:1020D00018460C37BD465DF8047B704780B483B06A
:1020E00000AF78607A68936943F4803393617A68CB
:1020F000936823F040039360002318460C37BD46D5
:102100005DF8047B704780B483B000AF78607A6874
:10211000936943F0807393617A68936823F0200396
:102120009360002318460C37BD465DF8047B70476A
:1021300080B582B000AF084BD3F8D8337B607B68A2
:1021400003F00103002B03D004490548FFF702FC0C
:1021500000BF0837BD4680BD001003405000FD1F82
:1021600000C0064080B500AFDA20FFF7C5FA03468D
:10217000012B02D1DA20FFF731FBDB20FFF7BCFA9D
:102180000346012B02D1DB20FFF728FB00BF80BDF7
:1021900080B500AF0C4B1B6809211846FEF74EFEB8
:1021A0000346012B01D101230BE0074B1B680021E3
:1021B0001846FEF743FE0346012B01D1012300E040
:1021C0000023184680BD00BF7807FD1F80B582B090
:1021D00000AF0346FB711C4B1B68FA791146184689
:1021E000FEF7DAFD184B1B6800211846FEF7EAFDE2
:1021F000154B1B681846FEF76DFD0346002B01D0FA
:1022000009231CE0104B1B680A211846FEF716FE36
:102210000346012B00D1F5E700BF0B4B1B681846A6
:10222000FEF7FAFD0346012B01D1012307E0FFF77A
:10223000AFFF0346012B01D1012300E00023184624
:102240000837BD4680BD00BF7807FD1F80B584B04C
:1022500000AF78600B46FB700023FB730023FB7319
:1022600038E0214B1B680A211846FEF7E7FD0346BC
:10227000012B00D0F5E700BF1B4B1868FB7B7A6889
:1022800013441B781946FEF787FD174B1B680A217C
:102290001846FEF763FE144B1B6802211846FEF732
:1022A000CDFD0346012B00D0F5E700BF0E4B1B68A8
:1022B0001846FEF7B1FD0346012B01D101230EE0C4
:1022C000FFF766FF0346012B01D1012307E0FB7BEB
:1022D0000133FB73FA7BFB789A42C2D30023184682
:1022E0001037BD4680BD00BF7807FD1F80B500AF29
:1022F000174B1B681846FEF71DFD0346002B01D047
:10230000092322E0124B1B6807211846FEF796FDB1
:102310000346012B00D0F5E700BF0D4B1B680921D8
:102320001846FEF78BFD0346012B01D101230CE07B
:10233000074B1B6807211846FEF710FE044B1B686D
:102340000A211846FEF70AFE0023184680BD00BF8A
:102350007807FD1F80B584B000AF03460A46FB71C5
:102360001346BB8097F907305B005AB2BB881B0A43
:102370009BB25BB203F001035BB213435BB2DBB20F
:102380003B73BB88DBB27B733420FFF71FFF07F181
:102390000C0302211846FFF759FFFFF7A7FF00BF04
:1023A0001037BD4680BD000080B586B000AF7860B4
:1023B00039607B68002B02D03B68002B01D10423DD
:1023C0007BE007F1080310211846FDF795FF3D4A11
:1023D0007B68136000233B723B4BFB600023BB74A4
:1023E0000023FB7400237B61364B1B6807F1080256
:1023F00011461846FEF756FB0346002B01D0012379
:102400005BE03B689B8A9BB219460F20FFF7A2FF57
:1024100012210620FFF79EFF3B681B889BB21946DE
:102420000020FFF797FF3B685B889BB219460120AD
:10243000FFF790FF3B689B889BB219460220FFF78D
:1024400089FF3B68DB889BB219460320FFF782FFB8
:102450003B681B899BB219460420FFF77BFF3B6852
:102460005B899BB219460520FFF774FF3B68DB8947
:102470009BB219460720FFF76DFF3B681B8A9BB292
:1024800019460820FFF766FF3B685B8A9BB2194636
:102490000920FFF75FFF3B689B899BB21946062026
:1024A000FFF758FF3B689B889AB2084B1A803B683D
:1024B000DB889AB2064B1A80002318461837BD46AF
:1024C00080BD00BF7807FD1F801A06007C07FD1F36
:1024D0007E07FD1F80B483B000AF78604FF0FF33FC
:1024E00018460C37BD465DF8047B704780B483B056
:1024F00000AF786039603B684FF400525A600023A7
:1025000018460C37BD465DF8047B704780B400AFB9
:1025100001231846BD465DF8047B704780B483B044
:1025200000AF7860012318460C37BD465DF8047B88
:10253000704780B582B000AF7860396001F048FA2A
:10254000034616221A604FF0FF3318460837BD467F
:1025500080BD80B485B000AFF860B9607A604FF09C
:10256000FF3318461437BD465DF8047B704780B4CE
:1025700085B000AFF860B9607A604FF0FF3318465D
:102580001437BD465DF8047B704780B485B000AF5A
:10259000F860B9607A604FF0FF3318461437BD46D3
:1025A0005DF8047B704780B582B000AF78600B4661
:1025B000FB701346BB7000F08BFB786800F026FBC5
:1025C000BA78FB781146184600F01CF8FB781846DC
:1025D00000F008FA00F068F800BF0837BD4680BD7B
:1025E00080B500AF0648FFF7A9FA0548FFF776FD6A
:1025F0000348FFF788FD0248FFF760FD00BF80BD7C
:1026000000C0064080B588B000AF03460A46FB71A3
:102610001346BB71204BD3F81C3623F440231E4ACB
:1026200043F40023C2F81C361C4B01221A701A4BCB
:10263000D3F81C3623F44013174A43F40013C2F8AE
:102640001C36174B01221A7007F108031621184691
:10265000FDF752FE0023BB8317233B8117237B81A9
:102660007823BB817823FB81BB799BB23B8200231B
:102670007B825323FB82FB799BB23B8301237B83C9
:102680000223BB8207F1080319460648FFF78CFEB8
:1026900000BF2037BD4680BD00F00640A801DE42E5
:1026A000AC01DE420082034080B588B000AF3B1D24
:1026B0001C211846FDF720FE1C21AC48FDF71CFE2E
:1026C0001C21AB48FDF718FE00BFFEF78DFE034648
:1026D000002B14BF01230023DBB2002BF5D1A34A4A
:1026E000137843F003031370A04A137823F00C030C
:1026F00013709E4A137843F0100313709B4A1378AB
:10270000032161F347131370984A5378022161F350
:1027100001035370954A537823F01C035370934A76
:102720005378052161F347135370904A9378102131
:1027300061F3050393708D4A937843F040039370DF
:102740008A4A937823F080039370884AD3780121D2
:1027500061F30103D370854AD37823F00C03D3705F
:10276000824B1B681B0EDAB2804B1B681B0DDBB261
:102770005340DAB27D4B1B681B0CDBB25340DAB21C
:102780007A4B1B681B0BDBB25340DAB2774B1B68EA
:102790001B0ADBB25340DAB2744B1B681B09DBB275
:1027A0005340DBB203F00F03D9B2704AD37861F320
:1027B0000713D3706D4B0122DA806C4B00221A7123
:1027C0006A4B1A79694B5A7100F078FC03461A4635
:1027D000664B9A60654B674ADA60644A634B5B6894
:1027E0001361624B9B68614A53610021DB20FEF755
:1027F000FBFE5E4A137F43F0030313775B4A137FAC
:1028000023F00C031377594A137F43F01003137717
:10281000564A137F052161F347131377534A537FB9
:10282000022161F301035377504A537F052161F37D
:10283000840353774D4A537F23F0E00353774B4A89
:10284000937F102161F305039377484A937F43F008
:1028500040039377454A937F23F080039377434A5D
:10286000D37F012161F30103D377404AD37F23F063
:102870000C03D3773D4BDB691B0EDAB23B4BDB69B4
:102880001B0DDBB25340DAB2384BDB691B0CDBB2F9
:102890005340DAB2354BDB691B0BDBB25340DAB283
:1028A000324BDB691B0ADBB25340DAB22F4BDB69D8
:1028B0001B09DBB25340DBB203F00F03D9B22B4A42
:1028C000D37F61F30713D377284B01225A84274B18
:1028D000002283F82020254B93F82020234B83F8F7
:1028E0002120224B244A5A6200F0FCFB03461A4680
:1028F0001E4B9A621D4A1D4B1B6AD3621B4B9B6A7F
:102900001A4A53631C21DA20FEF76EFE174B7B60D8
:1029100000233B7200237B720023BB720023FB72F7
:1029200007233B7301237B73144BFB61144BBB6187
:102930003B1D1846FEF780FD0220FEF779FE0320BE
:10294000FEF776FE0520FEF773FEDB20FEF7ACFEF9
:10295000DB20FEF7F7FEDA20FEF7A6FEDA20FEF710
:10296000F1FE00BF2037BD4680BD00BF8007FD1FC0
:102970009C07FD1F04C0064000C0064085290000DA
:10298000B529000080B582B000AF00F097FB7860F9
:102990007B68002B01D100F097FA7B68044A9360B2
:1029A000DB20FEF7F1FE00BF0837BD4680BD00BF4B
:1029B0008007FD1F80B582B000AF00F093FB786008
:1029C0007B68002B01D100F07FFA7B68044A936298
:1029D000DA20FEF7D9FE00BF0837BD4680BD00BF34
:1029E0008007FD1F80B59EB000AF0346FB7107F165
:1029F0006C030B211846FDF77FFC07F138033421E7
:102A00001846FDF779FC07F10C032C211846FDF759
:102A100073FC2720FEF7F2FA724BD3F8603623F0EE
:102A20000303704A43F00103C2F860366E4B012283
:102A30001A706C4BD3F8603623F44063694A43F450
:102A40008063C2F86036694B01221A70654BD3F877
:102A5000603623F44073634A43F48073C2F86036EF
:102A6000634B01221A705F4BD3F8603623F03003BA
:102A70005C4A43F01003C2F860365E4B01221A70C4
:102A8000584BD3F8603623F0C003564A43F0400356
:102A9000C2F86036584B01221A705848FFF766F8A2
:102AA000FFF73CF8564A136843F002031360002313
:102AB0007B63002387F86C30002387F86D30002398
:102AC00087F86E30002387F86F30002387F8703066
:102AD000002387F87130002387F87230002387F8CD
:102AE0007330002387F87430002387F87530002393
:102AF00087F87630002387F83830FB790C2B02D129
:102B00004FF4B0737B87FB79182B01D140237B876F
:102B1000FB79002B01D120237B87FB791C2B01D172
:102B200060237B87002387F83C30002387F83D3003
:102B3000002387F83E30012387F83F30002387F8D1
:102B40004030002387F84130002387F842300023CB
:102B500087F84330002387F84430012387F8453055
:102B6000002387F84630002387F84730002387F892
:102B70004830012387F849300F2387F84A300F2364
:102B800087F84B3003233B65042387F85830042330
:102B900087F85930002387F85A30002387F85B30D4
:102BA000002387F85C30012387F85D30012387F824
:102BB0005E30144B01221A70134B01221A7007F178
:102BC0006C033B6607F10C037B66012387F86830D2
:102BD00007F1380319460948FEF7E0FF00BF7837D0
:102BE000BD4680BD00F00640B402DE42B802DE42BF
:102BF0008001DE428401DE42BC02DE4200C00640AB
:102C000000D003402005D8426005D84280B588B086
:102C100000AF786007F10C0314211846FDF76CFB38
:102C200000233B737B683B6100233B7500237B756E
:102C30000023BB750023FB7500233B7600237B76C6
:102C40000023BB760023FB611C4BD3F81C3623F01A
:102C500030031A4A43F01003C2F81C36184B012205
:102C60001A70184B00221A70144BD3F81C3623F03C
:102C7000C003124A43F04003C2F81C36124B012233
:102C80001A7007F10C0319461048FDF7AFFC034614
:102C9000002B14BF01230023DBB2002B01D000BFA7
:102CA000FDE700210948FDF739FE01210748FDF73E
:102CB00035FE00BF2037BD4680BD00BF00F0064096
:102CC0000401DE427CA0DE420801DE4200800340B7
:102CD00080B487B000AF0023BB7500237B75012350
:102CE0007B752B4B00221A702A4B7A7D1A702A4B67
:102CF00001221A70294B00221A700023BB74002392
:102D00007B7401237B74264B00221A70254B7A7C3E
:102D10001A70254B01221A70244B00221A700023CE
:102D2000BB7300237B7301237B73214B00221A703A
:102D3000204B7A7B1A70204B01221A701F4B002205
:102D40001A700023BB7200237B7201237B721C4B21
:102D500000221A701B4B7A7A1A701B4B01221A70D0
:102D60001A4B00221A700023BB7100237B710023D1
:102D7000BB71174BBA791A70164B00221A70164B9A
:102D800000221A7000BF1C37BD465DF8047B7047F7
:102D900028A0DE42A880DE42A840DE42A800DE4233
:102DA00048A0DE428885DE428845DE428805DE4254
:102DB00020A0DE42A080DE42A040DE42A000DE4233
:102DC00000A0DE428080DE428040DE428000DE42A3
:102DD0000021DE420041DE420001DE4280B483B0C9
:102DE00000AF03460A46FB711346BB71FB79042B07
:102DF0001DD801A252F823F0152E00001D2E000050
:102E0000252E00000D2E00002D2E00000B4ABB7950
:102E100013700CE00A4ABB79137008E0094ABB79C9
:102E2000137004E0084ABB79137000E000BF00BFD4
:102E30000C37BD465DF8047B704700BF8080DE42E2
:102E4000A880DE428885DE42A080DE4280B582B066
:102E500000AF786015E000BF04210E48FDF784FD47
:102E60000346012B14BF01230023DBB2002BF3D157
:102E70007B681B7819460748FDF7CCFD7B6801335A
:102E80007B607B681B78002BE5D100BF00BF083753
:102E9000BD4680BD008003400FB480B596B000AF42
:102EA00007F164037B65381D7B6D3A6E502100F09D
:102EB000ADFC3B1D1846FFF7C9FF00BF5837BD46A4
:102EC000BDE8804004B0704780B500AF012101200B
:102ED000FFF784FF01210220FFF780FF002100207F
:102EE000FFF77CFF0248FFF7D7FF00BFFDE700BFF9
:102EF0007CA2000080B487B000AFF860B9607A604F
:102F00004FF480737B6114E0FB681B68190CBB688D
:102F10009A1CBA600AB21A80FB6819687B689A1C0E
:102F20007A600AB21A80FB680433FB607B69013B5C
:102F30007B617B69002BE7D100BF00BF1C37BD461A
:102F40005DF8047B704780B489B000AFF860B96069
:102F50007A604FF48073FB611AE0FB68B3F90030CC
:102F60009BB2BB61BB68B3F900309BB27B61BB69AC
:102F700019047B681A1D7A607A690A431A60FB6833
:102F80000233FB60BB680233BB60FB69013BFB6142
:102F9000FB69002BE1D100BF00BF2437BD465DF8BF
:102FA000047B704780B582B000AF122218214FF425
:102FB000E130FFF7F8FA354A35493648FFF76CFF3C
:102FC0003548FFF769FF00210320FFF707FF33486B
:102FD00000F00DF9324800F00AF94FF48062002148
:102FE000304800F04FFC4FF4806200212E4800F082
:102FF00049FCFFF7F5FA00BF2A49284800F006F916
:10300000034683F00103DBB2002BF5D1012102203E
:10301000FFF7E4FE01210320FFF7E0FE234A2449E5
:103020002048FFF767FF00237B6012E0204A7B689F
:1030300032F913101F4A7B6822F813101B4A7B6871
:1030400032F913101C4A7B6822F813107B68013395
:103050007B607B68FF2BE9D9134A17491548FFF7B6
:1030600072FF00BF10490E4800F06AF9034683F072
:103070000103DBB2002BF5D100210220FFF7AEFEE9
:1030800000210320FFF7AAFEB5E700BF8CA20000D5
:1030900098A20000A4A20000ACA20000B807FD1F87
:1030A000C413FD1FD01FFD1FD023FD1FD029FD1FFE
:1030B000D027FD1FD02BFD1FD02DFD1F80B582B066
:1030C00000AF074800F0EDF878607B68002B01D175
:1030D000FFF7FAFE7B6818460837BD4680BD00BF83
:1030E000C413FD1F80B582B000AF074800F078F927
:1030F00078607B68002B01D1FFF7E6FE7B681846FD
:103100000837BD4680BD00BFB807FD1F80B500AFC2
:10311000034800F051F8034800F04EF800BF80BDAE
:10312000B807FD1FC413FD1F80B500AFFFF7EEFF0A
:1031300080BD000080B483B000AF0346FB7197F9F7
:103140000730002B0BDBFB7903F01F02074997F9CF
:1031500007305B09012000FA02F241F8232000BF8A
:103160000C37BD465DF8047B704700BF00E100E00E
:1031700080B483B000AF0346FB7197F90730002B92
:1031800012DBFB7903F01F020A4997F907305B094C
:10319000012000FA02F2203341F82320BFF34F8FC1
:1031A00000BFBFF36F8F00BF00BF0C37BD465DF897
:1031B000047B704700E100E080B483B000AF78602A
:1031C0007A687B68C3F8002C7A687B68C3F8042CA3
:1031D0007B68002283F8082C7B68012283F8092C85
:1031E0007B6818460C37BD465DF8047B704780B598
:1031F00082B000AF78607B684FF4406200211846CF
:1032000000F040FB00BF0837BD4680BD80B584B0EC
:1032100000AF786039607020FFF7AAFF7B68D3F8B1
:10322000002C7B68D3F8043C9A420CD17B6893F85D
:10323000083C83F00103DBB2002B04D07020FFF7C1
:1032400079FF002329E07020FFF774FF4FF48073AB
:10325000FB600EE07B68D3F8002C111D7B68C3F87F
:10326000001C3B68191D396012681A60FB68013B3D
:10327000FB60FB68002BEDD17B68D3F8002C7B68EA
:1032800003F540639A4203D37A687B68C3F8002C45
:103290007B68002283F8082C012318461037BD46AE
:1032A00080BD80B582B000AF78607B6893F8093C40
:1032B00083F00103DBB2002B2DD07B68D3F8003CF8
:1032C00003F580627B68C3F8002C7B68D3F8002C80
:1032D0007B6803F540639A4203D37A687B68C3F83E
:1032E000002C7B68002283F8082C7B68D3F8002C24
:1032F0007B68D3F8043C9A4209D17B6893F8083C78
:1033000083F00103DBB2002B01D0FFF7DDFD7B680A
:10331000D3F8003C10E07B68D3F8002C7B6803F501
:1033200040639A4201D3FFF7CFFD7B68002283F808
:10333000092C7B68D3F8003C18460837BD4680BD91
:1033400080B584B000AF786039607020FFF710FF5F
:103350007B68D3F8042C7B68D3F8003C9A4209D1EF
:103360007B6893F8083C002B04D07020FFF7E2FE46
:10337000002331E04FF48073FB600EE03A68131DC8
:103380003B607B68D3F8043C181D7968C1F8040CD5
:1033900012681A60FB68013BFB60FB68002BEDD1F3
:1033A0007B68D3F8042C7B6803F540639A4203D30F
:1033B0007A687B68C3F8042C7B68D3F8042C7B689C
:1033C000D3F8003C9A4203D17B68012283F8082C91
:1033D0007020FFF7AFFE012318461037BD4680BDB1
:1033E00080B582B000AF78607B6893F8093C83F0C9
:1033F0000103DBB2002B2AD07B68D3F8043C03F531
:1034000080627B68C3F8042C7B68D3F8042C7B684B
:1034100003F540639A4203D37A687B68C3F8042CAF
:103420007B68D3F8042C7B68D3F8003C9A4203D124
:103430007B68012283F8082C7B6893F8083C002BFA
:1034400001D0FFF741FD7B68D3F8043C10E07B68B6
:10345000D3F8042C7B6803F540639A4201D3FFF74D
:1034600033FD7B68002283F8092C7B68D3F8043C89
:1034700018460837BD4680BDA3F5803A704700BFA7
:10348000174B002B08BF134B9D46FFF7F5FF00219C
:103490008B460F461348144A121A00F0F3F90E4BEC
:1034A000002B00D098470D4B002B00D098470020F0
:1034B000002104000D000D48002802D00C4800F047
:1034C00027FB00F08BFA20002900FFF76BFD00F0CE
:1034D00057F800BF000008000000000000000000D6
:1034E00000F0FF1F6407FD1F0433FD1F113B0000A8
:1034F000C96100000348044B834202D0034B03B16F
:10350000184770476407FD1F6407FD1F0000000097
:103510000548064B1B1AD90F01EBA301491002D035
:10352000034B03B1184770476407FD1F6407FD1F75
:103530000000000010B5064C237843B9FFF7DAFF0E
:10354000044B13B10448AFF300800123237010BD76
:10355000D02FFD1F00000000A4A6000008B5054BF9
:103560001BB105490548AFF30080BDE80840FFF7EF
:10357000CFBF00BF00000000D42FFD1FA4A6000095
:1035800008B50021044600F063FA034B1B6803B141
:103590009847204606F0D0F92431FD1F024A03491E
:1035A000034800F0C9B800BF7C00FD1FDD5E0000CD
:1035B0009000FD1F0C4B4168994210B5044601D0A4
:1035C00002F08CFCA168094B994202D0204602F01F
:1035D00085FCE168064B994204D02046BDE81040C6
:1035E00002F07CBC10BD00BFEC2FFD1F5430FD1F4E
:1035F000BC30FD1F2DE9F843314A324C3249DFF827
:10360000DC90DFF8DC80314F11600025042329466F
:10361000082204F15C00C4E903352D4EA560C4E91D
:103620000055C4E90555656600F02CF904F1580011
:10363000C4E90749C4E90987E66200F0F7F92946B9
:10364000244B6367082204F1C400C4E91A55C4E995
:103650001E552567C4F8CC50C4F8805000F012F90C
:1036600004F1680304F1C000C4F88430C4E922986E
:10367000C4E9247600F0DAF9174BC4F8DC302946A7
:1036800004F596700822C4E93455C4E93855C4F8E5
:10369000D850C4F83451C4F8E85000F0F3F804F1FD
:1036A000D003C4E93D87C4F8F09004F59470C4F8E1
:1036B000FC60C4F8EC30BDE8F84300F0B7B900BFD7
:1036C0002431FD1FEC2FFD1F9D350000E137000068
:1036D0000538000009000100120002007D370000DB
:1036E000A137000010B504460A4800F0A3F9636B47
:1036F00023B9094B094A1B68626323B1BDE8104036
:10370000044800F099B9FFF775FFBDE81040014883
:1037100000F092B93431FD1F2431FD1FB535000092
:10372000014800F087B900BF3431FD1F014800F0A7
:1037300083B900BF3431FD1F2DE9F84307468846A1
:1037400016464FF00009D6E90154013D10D4A38973
:10375000012B08D9B4F90E3001332146384602D086
:10376000C04749EA0009013D6B1C04F16804EED131
:103770003668002EE7D14846BDE8F88310B50C4600
:10378000B1F90E1000F0F8F8002803DB236D0344B4
:10379000236510BDA38923F48053A38110BD00BF0E
:1037A0002DE9F0410C46B1F90C101F46CB0505463A
:1037B00016460BD421F48051A1813B46B4F90E107A
:1037C00032462846BDE8F04100F0ECB8B4F90E10DE
:1037D0000223002200F0BAF8B4F90C10EAE700BFA7
:1037E00010B50C46B1F90E1000F0B0F8B4F90C3079
:1037F000421C0EBF23F4805343F480532065A38101
:1038000010BD00BFB1F90E1000F08EB810B51C4C01
:10381000002924689AB02DDB009004904FF40270C8
:10382000ADF80C004FF00000199013D001394FF69D
:10383000FF7002910591ADF80E006946204600F038
:1038400083FD421C01DA8B232360009B00221A7047
:103850001AB010BD4FF6FF7002910591ADF80E0041
:103860006946204600F070FD431C01DA8B2323607B
:103870001AB010BD8B2323604FF0FF30F8E700BF74
:103880008800FD1F830730B547D0541E002A3ED064
:10389000CAB2034601E0013C39D303F8012B9D076E
:1038A000F9D1032C2CD9CDB205EB05250F2C05EB56
:1038B000054535D9A4F1100222F00F0C03F1100ECA
:1038C000E6444FEA121C1A46C2E90055C2E9025505
:1038D00010327245F8D10CF1010214F00C0F03EB19
:1038E000021204F00F0C13D0ACF1040323F0030315
:1038F0000433134442F8045B9342FBD10CF00304FD
:103900002CB1C9B21C4403F8011BA342FBD130BD4A
:1039100064461346002CF4D1F9E703461446C0E789
:103920001A46A446E0E700BF38B5074D002204461A
:1039300008462A60FEF7CEFD431C00D038BD2B6838
:10394000002BFBD0236038BD2831FD1F38B50C4655
:10395000084D8446114620461A4600232B606446D3
:10396000FEF7F7FD431C00D038BD2B68002BFBD0C1
:10397000236038BD2831FD1F38B50C46084D8446FC
:10398000114620461A4600232B606446FEF7EFFDE1
:10399000431C00D038BD2B68002BFBD0236038BD02
:1039A0002831FD1F38B50C46084D84461146204687
:1039B0001A4600232B606446FEF7E7FD431C00D047
:1039C00038BD2B68002BFBD0236038BD2831FD1F8C
:1039D000014B1868704700BF8800FD1F70B50F4B82
:1039E0000F4DAB42A3EB050607D0B610002455F8E7
:1039F000043B01349847A642F9D806F033FC094D40
:103A0000094B5E1BAB424FEAA60606D0002455F8D0
:103A1000043B01349847A642F9D870BD5407FD1FF6
:103A20005407FD1F5407FD1F6007FD1F704700BFAF
:103A3000704700BF704700BF704700BF024B13B113
:103A4000024800F065B8704700000000C96100003E
:103A50002DE9F04F2C4B2D4F83B082461868CDF8DE
:103A600004A08B46FFF7E6FF3E684EB34FF0000917
:103A70004FF001087468651E22D4013406EB8404FB
:103A8000BBF1000F23D173682268013BAB420CBF2E
:103A90007560C4F8009072B1D6F88811D6F804A009
:103AA00008FA05F30B421CD1904773683A685345F6
:103AB00023D1B24221D1013D6B1CA4F10404DFD11A
:103AC000114B186803B0BDE8F04FFFF7B5BFD4F84D
:103AD00000315B45D7D0013D6A1CA4F10404F6D146
:103AE000EEE7D6F88C01D4F88010034209D1019892
:103AF000904773683A685345DBD0002AE0D01646F9
:103B0000B8E708469047D0E7D001FD1F3831FD1FC8
:103B1000002301461A46184602F070BC2DE9F8430E
:103B200006460820894602F063FBDFF8A4800546BC
:103B3000304600F0FDFBD8F808305F6827F0030737
:103B4000A7F11104A4EB09042C44B4FBF5F4013CE7
:103B500005FB04F4A54208DC0021304602F022FBFC
:103B6000D8F808303B44984205D0304600F0E6FBD8
:103B70000020BDE8F8836142304602F013FB0130BB
:103B80000FD0114AD8F808303F1B47F001075F609B
:103B9000136830461B1B136000F0D0FB0120BDE80A
:103BA000F8830021304602F0FDFAD8F80820831A85
:103BB0000F2BDADD43F001035360044B02491B680D
:103BC000C01A0860D1E700BF3C31FD1FD401FD1FC2
:103BD000E001FD1F00297CD02DE9F0410C46804614
:103BE00000F0A6FB54F8043C754FA4F1080523F03F
:103BF00001016818BE684268864222F0030200F0A4
:103C00008380DE07426000EB020C33D454F8084C8A
:103C1000DCF804302D1B2144AC6807F1080C644526
:103C200003F0010364D0D5F80CE0C4F80CE0CEF842
:103C30000840002B00F0818041F001036B600160BF
:103C4000B1F5007F22D27868CB08012249090133FF
:103C50008A40024357F833107A6007EBC302083AF0
:103C6000C5E9021247F83350CD604046BDE8F04147
:103C700000F064BBDCF80430DB072BD541F0010316
:103C8000B1F5007F44F8043C0160DCD3B1F5206F4E
:103C90004FEA512353D28B0903F1390003F1380263
:103CA000C300F818FB580838984203D161E09B68BC
:103CB000984204D05A6822F003028A42F7D8D868A2
:103CC000C5E902308560DD604046BDE8F04100F0A6
:103CD00035BB7047114407F1080C836863453FD03A
:103CE000C268DA60936041F001036B606950A7E736
:103CF000002B5FD10A44D0E90213CB60996042F0F7
:103D000001036B60AA50B0E7DB070A4407D454F8FC
:103D1000083CED1A1A44D5E90213CB60996042F0D1
:103D200001036B60274BBD601B6893429DD8264BF7
:103D300040461968FFF7F2FE97E71144CDE7142BD0
:103D400008D9542B1DD80B0B03F16F0003F16E0241
:103D5000C300A6E703F15C0003F15B02C300A0E728
:103D600041F00103C7E90455C5E902CC6B60695015
:103D70007BE779689210012404FA02F20A437A6020
:103D80009EE7B3F5AA7F06D8CB0B03F1780003F1C9
:103D90007702C30085E740F25452934206D88B0C59
:103DA00003F17D0003F17C02C3007AE74FF47E73D8
:103DB0007E2276E741F001036B60016055E700BFAA
:103DC000E001FD1FD801FD1F6C31FD1F2DE9F04FF3
:103DD00001F10B05162D83B0064623D8102900F2F9
:103DE000AF8000F0A5FA102518230220B74F3B44FE
:103DF000A3F108025C68944200F01E816368E268E7
:103E0000A16823F00303CA602344304691605A68D6
:103E100042F001025A6000F091FA0834204603B0E3
:103E2000BDE8F08F35F0070500F18A80A94200F265
:103E3000878000F07DFAB5F5FC7FC0F06E816B0ADB
:103E400000F08280042B00F21D81AB0903F13900E0
:103E500003F1380EC3009D4F3B44A3F1080C5C688E
:103E6000A44507D10DE0002AE16880F2DF808C458F
:103E700007D00C46636823F003035A1B0F2AF2DDB8
:103E80007046DFF860823C69444500F0BC8063689E
:103E900023F0030CACEB05030F2B00F34281002B46
:103EA000C7E9048880F22D81BCF5007FD7F804E0D3
:103EB00080F0C8804FEADC0101314FEA5C1C01232D
:103EC00003FA0CF357F83120A2604EEA030E07EB19
:103ED000C103083BE360C7F804E047F83140D46011
:103EE00083104FF0010C0CFA03FCF44532D81CEAA5
:103EF0000E0F08D120F003004FEA4C0C1CEA0E0F05
:103F000000F10400F8D007EBC00AD6468146DEF87F
:103F10000C300BE0596821F003014A1B0F2A1C46A4
:103F2000DB6800F3BB80002A80F2DE809E45F1D181
:103F300009F1010919F0030F0EF1080EE7D119E19B
:103F40000C233360002469E74FF4007340204FF0E6
:103F50003F0E80E7BC68636823F00309A94503D3DB
:103F6000A9EB05030F2B51DC594B1B68082003F10B
:103F7000100804EB0903009302F03AF9554A13685C
:103F80000133A844834605D008F1FF3880444342FA
:103F900003EA08084146304602F004F9B0F1FF3F59
:103FA0004C4A824600F0D880009B834200F2D280C7
:103FB000494B186840440BF1FF311860844640F0CB
:103FC000FC801AEA010F40F0F880D7F808A0C84436
:103FD00048F00102CAF80420404B1968814238BFFA
:103FE00018603F4B1968814238BF1860544622F070
:103FF0000308A845A8EB050301D30F2B06DC3046C8
:1040000000F09CF99EE7D7F804E069E7621943F0F5
:10401000010345F0010565603046BA60536000F069
:104020008DF90834204603B0BDE8F08FA268234420
:10403000D16030468A60EAE6DC68A3427FF4DEAEF7
:1040400002301EE7BCF5206F4FEA5C227BD3142AB6
:1040500000F2128102F15C03DB005B32F918FB58BD
:104060000839994203D1ECE09B68994204D05A6820
:1040700022F003026245F7D8D968C4E902318C60A6
:10408000DC602DE7142B6AD9542B00F2FE802B0B39
:1040900003F16F0003F16E0EC300DCE6D4F808C034
:1040A0003046661945F001056560CCF80C30C3F860
:1040B00008C042F00103C7E90466C6E902887360DC
:1040C000625000F03BF90834A8E600BFE001FD1F94
:1040D0006C31FD1FD401FD1F3C31FD1F6831FD1FF8
:1040E0006431FD1FE801FD1F214430464A6842F05B
:1040F00001024A6054F8082FD3609A6000F01EF95C
:104100008CE6A4443046DCF8043043F00103CCF8DC
:10411000043000F013F9083480E6E80805F10803DC
:1041200064E6621943F0010145F00105656030461F
:10413000C7E90422C2E90288516044F80C3000F05B
:10414000FDF808346AE64FEA9C1202F13903DB00FD
:10415000383283E7BC4228D0BC68626847E703F185
:104160005C0003F15B0EC30075E65AF8083953454D
:1041700040F0D98010F0030F00F1FF30F5D17B68DB
:1041800023EA0C037B604FEA4C0C9C453FF6E2AE01
:10419000BCF1000F04D1DDE64FEA4C0C09F1040933
:1041A0001CEA030FF8D04846ADE6604B186808EBF0
:1041B000000C0BF1FF31C3F800C0106801306ED065
:1041C000009AAAEB020262441A601AF00702CDE9D3
:1041D000002340D0C2F108029244D04408EA010012
:1041E0005A44121A02EA010B5946304601F0DAFF2E
:1041F000421C019B6FD0A0EB0A0000EB0B08186873
:10420000C7F808A048F001025844BC42CAF804208C
:1042100018603FF4E1AEB9F10F0F43D96168A9F11D
:104220000C0222F0070201F00101114361604FF01E
:10423000050CA1180F2AC1E901CC54D8DAF80420E2
:10424000CAE692104FF0010C0CFA02F24EEA020E8E
:10425000C7F804E011E70AEB08020A40ABEB0202E0
:1042600002EA010B5946304601F09CFF431C019BBA
:10427000C1D1DDF800B0C2E7542A17D84FEA1C328A
:1042800002F16F03DB006E32E8E6B3F5AA7F17D8C0
:10429000EB0B03F1780003F1770EC300DBE5C2F806
:1042A00000A092E70123CAF80430A8E6B2F5AA7F7D
:1042B00024D84FEADC3202F17803DB007732CDE616
:1042C00040F25452934224D8AB0C03F17D0003F129
:1042D0007C0EC300BFE5009A083A9044A8EB0A0898
:1042E0004FF0000B8BE7304604F108010093FFF715
:1042F00071FC009BD7F808A018689FE740F2545360
:104300009A420CD84FEA9C4202F17D03DB007C32DA
:10431000A4E64FF47E737F204FF07E0E9BE54FF4B2
:104320007E737E229AE67B682DE700BF3C31FD1F3D
:104330000148FFF77FBB00BF2C31FD1F0148FFF78D
:104340007BBB00BF2C31FD1F2DE9F04FD9B00C46CF
:10435000099115460B93834601F020FF03681693DD
:10436000184601F0ADFF00211490082228A8FFF79D
:1043700089FAA389190603D52369002B00F05E870B
:104380009FED7F7B0023CDE92D33CDE917338DEDF4
:10439000107B2FAA0E932C92144615931C931993FD
:1043A00006932E46B246784BD3F8E45001F0F0FE67
:1043B00028AA0346009224A952465846A847002836
:1043C00000F0B180C0F2A780249A252A034601D0CC
:1043D0009A44E8E7BAEB0607054640F0A8800023B8
:1043E00019464FF0FF328DF8873007930AF1010A22
:1043F0009AF80030059204910AF1010AA3F1200213
:104400005A2A00F2C380DFE812F0F402C100C100B2
:10441000ED02C100C100C1006A00C100C1003F023D
:104420005102C1004A020603C100FF025B005B00AB
:104430005B005B005B005B005B005B005B00C1003E
:10444000C100C100C100C100C100C1003B01C100E9
:10445000BE01D3023B013B013B01C100C100C100D1
:10446000C100CC02C100C1008802C100C100C1006E
:10447000E801C1005702C100C100B206C100C1007D
:10448000C100C100C100C100C100C1003B01C100A9
:10449000BE011A023B013B013B01A0021A027F0050
:1044A000C100C202C100B302D80622037F00C100CE
:1044B000E8017C00AE06C100C100DB06C1007C0043
:1044C000A3F1300200211AF8013B01EB810102EB5C
:1044D0004101A3F13002092AF5D907918EE7584628
:1044E00001F05CFE43681993184601F0E9FE1C9048
:1044F0000546584601F052FE83681793002D40F0A0
:10450000B7859AF8003077E7049B43F020030493C3
:104510009AF8003070E70822002128A8FFF7B2F9C6
:1045200001239A443FE7BAEB0607054610D02E9BBD
:104530003B442E932D9B0133072BC4E900672D9339
:1045400015DC0834069B3B440693002D7FF447AFEF
:104550002E9B002B41F09381099B9B8903F0400324
:10456000002B41F09283069859B0BDE8F08F09996D
:104570002CAA584601F086FC0028EDD12FACE1E7CB
:104580000000000000000000E805FD1F0C93002B58
:10459000DED000228DF8FC3001238DF887200293B5
:1045A0000A920893059212920F920D923FAE049BCD
:1045B00013F0020302D002990231029104992E9D58
:1045C00011F0840805D1079902980F1A002F00F303
:1045D000A1806AB1012262602D9A013201350DF18C
:1045E0008701072A2E952D92216000F3DB83083482
:1045F0006BB12D9B22AA013302352260072B4FF0AD
:1046000002022E952D93626000F3C1830834B8F145
:10461000800F00F0C482059B089A9F1A002F00F3B8
:10462000FE82049BDA0500F12482089B63601D442E
:104630002D9B26600133072B2E952D9300F33F838E
:104640000834049B5A0705D5079B029A9E1A002E30
:1046500000F3B583DDE9063202998A42ACBF9B18AC
:104660005B180693002D40F00B8300232D930A9BCB
:104670001BB10A995846FFF7ADFA2FAC564691E6A2
:104680000C930B9B073323F00703B3EC027B58EC2E
:10469000177B0B9328F000431B938DED1A7ADDE90D
:1046A0001A01AF4B4FF0FF328DED107B05F09CFDF2
:1046B000002840F00285DDE91A01A94B4FF0FF32D6
:1046C00005F074FD002840F0F884002200233846ED
:1046D000414605F061FD002841F021809DF88720CA
:1046E000049BA04E23F0800304939F4B0C99472911
:1046F000D8BF1E46002303210A9302910891059317
:1047000012930F930D93002A3FF451AF029B013394
:1047100002934CE795492D9A1391102F25DD2146E0
:104720002846099C914D1D934FF0100904E0103F5D
:10473000102F01F1080115DD01321030072AC1E9FF
:104740000059CDE92D20F2DD2CAA2146584601F072
:1047500099FB002840F09C82103F102FDDE92D20AE
:104760002FA9E9DC1D9B0C460546013213992160F7
:104770003D44072ACDE92D25676000F3D4869DF8D6
:104780008720083425E70B9A0C93432B02F104058C
:1047900003D0049BDA0640F11785082200212AA8DD
:1047A000FFF770F80B9B3FAE1A6831462AAB5846AC
:1047B00003F024FA03460133089001F06182089B5C
:1047C00023EAE373029300220B958DF887200A9267
:1047D000059212920F920D92E9E60B9F0C9357F8F7
:1047E000046B00238DF88730002E00F016850C9B9B
:1047F000532B00F0BF86049B13F010030D9340F081
:10480000B986059B002BC1F245800D991A463046AA
:1048100001F0FEFC0A90002801F066820A9B991BB9
:104820000D9B0891059321EAE17112930F930A936E
:1048300073239DF887200B9702910C9363E70C93E9
:10484000049B9B0640F1BD800B9B073323F00703BD
:104850001A46596852F8083B0B920A460029C0F2E2
:10486000CA8305990029C0F28382049921F080054A
:1048700053EA020140F07D82059A002A40F07E82D0
:104880000495089258AE60E10B9B53F8042B0792F5
:10489000002A80F2DA83079A0B9352420792049B14
:1048A00043F0040304939AF80030A5E52B238DF818
:1048B00087309AF800309FE50C93049B43F0100575
:1048C00015F0200200F072830B9B073323F00703DF
:1048D00019465A6851F8083B0B9101210020059EAA
:1048E0008DF88700002EC0F2198125F08000049019
:1048F00053EA020040F01181002E40F02486002986
:1049000040F0808315F00103089300F0A383302367
:104910008DF85F310DF25F1617E10C93049B43F0A5
:1049200010030493049B13F0200200F055830B9BAB
:10493000073323F0070319465A6851F8083B0B91D7
:10494000049921F480650021C8E79AF80030682BAB
:1049500000F04E84049A42F0400204924CE500BFFD
:10496000FFFFEF7FC0A20000BCA2000074A4000003
:10497000049B9D0640F190830B9B069A1B681A606E
:10498000D2175A600B9B04330B9356460AE59AF8EC
:1049900000306C2B00F02284049A42F01002049242
:1049A0002AE5049B43F0080304939AF8003023E5BA
:1049B0000C93049B43F010030493049B9B063FF568
:1049C00043AF04990B9ACF0652F8043B00F14B8396
:1049D00004994E0640F143860B9243F3C0321146D0
:1049E0001BB23BE7049B43F0010304939AF80030A9
:1049F00002E59DF887209AF80030002A7FF4FCAC8D
:104A000020228DF88720F7E4049B43F08003049371
:104A10009AF80030F0E4504610F8013B2A2B01F0E0
:104A2000E581A3F13002092A98BF002101F2E48058
:104A300010F8013B01EB810102EB4101A3F13002CF
:104A4000092AF5D941EAE17205928246D6E40B9A29
:104A5000049B43F0020552F8043B0B9247F63002E8
:104A6000ADF8882078209B4A1592022100220C90F4
:104A700034E70C9B652B40F33381DDE91001002204
:104A8000002305F07FFB002800F0D2812D9B924A85
:104A90002260013301350122072B2E952D93626090
:104AA00000F35C850834239B0E9A934280F2C882FF
:104AB000149B169A1D44C4E900232D9B2E950133A7
:104AC000072B2D9300F39E8308340E9B5E1E002E51
:104AD0007FF7B7AD102E2D9BDFF8009240F3E580F5
:104AE000DDF82480102704E00834103E102E40F337
:104AF000DC8001331035072BC4E90097CDE92D3553
:104B0000F2DD2CAA4146584601F0BCF9002840F0DD
:104B1000BF80DDE92D352FACE7E7049D012900F0CA
:104B20002881022958AE1FD1159803F00F011B09E7
:104B3000415C06F8011D43EA0273120953EA0201BF
:104B4000F3D158AB9B1B04950893059908989DF8E1
:104B5000872081424FF00003B8BF01460A930291BB
:104B600012930F930D93CEE503F00701DB0843EAA0
:104B70004273D208303153EA0207304606F8011D6D
:104B8000F2D1EF07DDD53029DBD03023023806F82B
:104B9000013C58AB1B1A049508930646D5E7079BC2
:104BA000029A9F1A002F7FF736AD102F2D9BDFF84A
:104BB0002C9122DD2A464FF010084D46DDF8249056
:104BC00004E0103F102F04F1080414DD013310320B
:104BD000072BC4E90058CDE92D32F2DD2CAA494655
:104BE000584601F04FF9002852D1103F102FDDE94F
:104BF0002D322FACEADCA946154601333D44072B84
:104C0000CDE92D35C4F80090676000F3DB84059B87
:104C1000089A9F1A002F04F108047FF702AD102FA5
:104C20002D9BDFF8B8901FDD2A464FF01008099D34
:104C300004E0103F102F04F1080414DD013327496C
:104C40001032072BC4E90018CDE92D32F1DD2CAA72
:104C50002946584601F016F9D0B9103F102FDDE96A
:104C60002D322FACEADC154601333D44072BCDE94C
:104C70002D35C4F80090676000F38C810834D0E4CF
:104C800009992CAA584601F0FDF800283FF4EDAC34
:104C90000A9B002B3FF460AC0A995846FEF79AFF36
:104CA000099B9B8903F040035AE401333544072BE9
:104CB000C4F800906660CDE92D357FF7C1AC099945
:104CC0002CAA584601F0DEF80028E1D12E9D2FAC29
:104CD000B7E400BFCCA20000FCA2000064A4000066
:104CE0000E9B2D9F012B05F1010507F1010704F132
:104CF000080840F30B810123072FCDE92D752660AD
:104D0000636000F38381149B169A01371D44072FBB
:104D1000C8E90023CDE92D7500F3858108F1080865
:104D20000E9BDDE910015C1E0022002305F02AFA2B
:104D3000002840F00481013701362544072FCDE9D2
:104D40002D75C8F80060C8F8044000F3EB8008F146
:104D50000808189BC8F8043001371D44072F26ABFC
:104D6000CDE92D75C8F80030A9DC08F1080468E425
:104D7000049D0A2B72F1000180F05E8330338DF8C0
:104D80005F310123049508930DF25F16DDE6099962
:104D90002CAA584601F076F800287FF479AF2E9DB2
:104DA0002FAC34E4099913932CAA584601F06AF801
:104DB00000287FF46DAF2E9D139B2FAC18E4B44AEE
:104DC0002D9B1392102E1FDDDDF8248010279146B5
:104DD00004E0103E102E04F1080415DD01331035F7
:104DE000072BC4E90097CDE92D35F2DD2CAA414609
:104DF000584601F047F800287FF44AAF103E102EC5
:104E0000DDE92D352FACE9DC0133139A3544072B4E
:104E1000C4E90026CDE92D357FF71CAC09992CAAF1
:104E2000584601F02FF800287FF432AF2E9D11E490
:104E30002399002940F35183DDE90D329342A8BF45
:104E40001346002B98460ADD1D44C4E900632D9BE0
:104E50002E950133072B2D9300F3618608340D9FA7
:104E6000B8F1000FA8BFA7EB0807002F00F3F581EA
:104E70000D9B33440593049B5F0500F11582239B32
:104E80000E9A9342C0F2A082049AD00700F19C824D
:104E90000E9AB718D61A059BFF1AB742A8BF374615
:104EA000002F0ADD23602D9B676001333D44072BF3
:104EB0002E952D9300F365860834002FA8BFF61BAE
:104EC000002E7FF7BEAB102E2D9BDFF8C8917FF729
:104ED000ECAEDDF82480102704E00834103E102EDC
:104EE0007FF7E3AE01331035072BC4E90097CDE916
:104EF0002D35F2DD2CAA4146584600F0C3FF0028AC
:104F00007FF4C6AEDDE92D352FACE7E7049BD9076A
:104F10003FF5F1AE0123072FCDE92D7526606360C3
:104F20007FF717AF09992CAA584600F0ABFF00286D
:104F30007FF4AEAEDDE92D750DF1BC0809E70E9BDF
:104F4000012B7FF706AF112BDFF8489140F35C830C
:104F5000CDF814A01026CA46DDF8249005E008F12B
:104F60000808103C102C40F34C8301371035072FF4
:104F7000C8E900A6CDE92D75F1DD2CAA49465846B1
:104F800000F080FF00287FF483AEDDE92D750DF180
:104F9000BC08E6E709992CAA584600F073FF0028E0
:104FA0007FF476AE2E9D2FACFFF73BBB0B9915F02F
:104FB000100051F8043B0CD115F0400604D00B91C1
:104FC0009BB20246012189E415F400721CBFDBB2DA
:104FD00032460B91012181E404980B9910F01000E6
:104FE00051F8043B3DD1049A12F0400534D09BB2F5
:104FF00002460B91A4E45B42049D62EB42022D2029
:1050000001216CE4059B089358AE9EE509992CAAF2
:10501000584600F037FF00287FF43AAEDDE92D75E1
:105020000DF1BC086FE609992CAA584600F02AFF3A
:1050300000287FF42DAEDDE92D750DF1BC086FE67B
:10504000049BDB077FF5FDAA32E50B939AF800304D
:10505000FFF7D2B958AE78E5049A12F4007240F026
:1050600009840B916CE40B92DA171146FFF7F6BB3B
:10507000179A9AF80030002A3FF4BEA91278002A45
:105080003FF4BAA9049A42F480620492FFF7B4B9DB
:1050900074A4000064A40000049BD80600F1AB8255
:1050A000049B590600F1E083049B9A0540F1A3821A
:1050B0000B9B069A1B681A7064E4DDE91001024636
:1050C0000B4605F091F8002840F01E860C9B612BE2
:1050D00000F03185412B00F04E85059B013300F037
:1050E00002840C9B23F02003472B00F0E1850A90FB
:1050F000DDE91001049A002942F48079C0F2F984B4
:105100009DED107B8DED1E7B002313930C9B413B8B
:10511000252B00F22583DFE813F029042303230362
:105120002303EA03B50423032303230323032303F5
:10513000230323032303230323032303230323033F
:10514000230323032303230323032303230323032F
:105150002303230323032303230329042303230318
:105160002303EA03B504049D0C93FFF7A9BB0C933A
:10517000AD4B1593049B13F0200200F033810B9B81
:10518000073323F0070319465A6851F8083B0B917F
:105190000498C1070BD553EA020108D00C998DF889
:1051A000891040F00201049130218DF88810049993
:1051B00021F480650221FFF791BB0C93FFF7B2BB8E
:1051C0000C939A4B1593D5E70B9B1B688DF8FC301D
:1051D0000123029308933FAEFFF7F5BA049B43F017
:1051E000200304930AF1010A9AF80030FFF704B98A
:1051F000049B43F4007304930AF1010A9AF8003007
:10520000FFF7FAB809992CAA584600F03BFE00288F
:105210007FF43EAD2E9D2FAC57E4059B0A96062BDE
:10522000314628BF0623059632460293804E0B97DF
:10523000089312910F910D91FFF765BA40215846DE
:10524000FEF7C4FD099B18601861002800F0038672
:10525000099A40235361FFF793B8102F2D9BDFF875
:10526000D49140F30B8249462A46B146099D4FF03E
:1052700010080E4604E00834103F102F40F3FA8166
:1052800001331032072BC4E90068CDE92D32F2DD7D
:105290002CAA2946584600F0F5FD00287FF4F8AC0A
:1052A000DDE92D322FACE7E70E9BCDF830A006EB01
:1052B00003090F9BDDF85CA0DDF848800D96002BFC
:1052C00022462946059C099DCDF81490DDF8709082
:1052D00031DDB8F1000F40F33B8108F1FF382D9824
:1052E000199B013049440728C2E900392E912D90BD
:1052F00000F387800832059B9AF800001F1B874245
:10530000A8BF0746002F0CDD2D980130394407282F
:10531000C2E900472E912D9000F360819AF80000B9
:105320000832002FACBFC61B0646002E16DC044414
:105330000F9B002BCDDCB8F1000FCEDCDDE90D6357
:105340002046F31898421446024628BF1A46CDF864
:105350005CA00D46DDF830A0059290E5102E2D984A
:10536000344B23DD0894102734461E4604E0103CDD
:10537000102C02F1080216DD01302E4B10310728E7
:10538000C2E90037CDE92D01F1DD2CAA29465846A6
:1053900000F078FD00287FF47BAC103C102CDDE998
:1053A0002D012FAAE8DC33462646089C1360013005
:1053B00031440728CDE92D01566000F3A2839AF805
:1053C000000008320444B3E7149A16991544C4E95E
:1053D00000122D9A2E950132072A2D9200F3BE83DA
:1053E000083455E504980B9910F0100051F8043B6F
:1053F00017D1049A12F040050ED09BB202460B91D1
:10540000C6E62CAA2946584600F03CFD00287FF449
:105410003FAC2E992FAA6EE7049A12F4007240F066
:105420001F820B91B4E600BFE0A20000CCA20000F6
:10543000F4A2000064A4000000210894DFF81C938B
:10544000179CCDF810A005F4806758AE4FF0050802
:1054500002958C4605E00A2B72F1000234D35346C4
:105460002A46991841F10001A9FB010525F0030026
:1054700000EB9500091A581A4FF0CC3562F1000E76
:1054800005FB00F5A0FB09A009FB0E550AF0010E73
:105490000544AEFB080E40184FEA5A0A303006F8B1
:1054A000010C4AEAC57A0CF1010C013E6D08002F8F
:1054B000D1D021788C45CED1BCF1FF0FCBD00A2BB7
:1054C00072F1000280F0E7801794DDF810A0029DD1
:1054D000089CCDF838C0FFF734BB2D9B9E4A226054
:1054E000013301350122072B2E952D93626000F3C5
:1054F0001B810834002940F09380049B0E9A03F02E
:10550000010313433FF49DA8149B169A1D44C4E95C
:1055100000232D9B2E950133072B2D9300F3D6816D
:1055200004F108028DE0099913932CAA584600F063
:10553000A9FC00287FF4ACAB9DF887202E9D139B1F
:105540002FACFFF746B80129049D7FF4EAAA15E4C1
:105550000F9B013B0AF1FF3A0F93C0E609992CAA71
:10556000584600F08FFC00287FF492AB2E9D2FACA4
:10557000FFF799BA0DF1A8080822002140462596A8
:10558000FEF780F9059B002BC0F292800025029760
:1055900099462F460EE03FA9584602F02FFB431CC8
:1055A000384400F08F83484509DC05F1040500F01C
:1055B000BD830746259A52594346002AEBD10897E6
:1055C000029F83E009992CAA584600F05BFC002852
:1055D0007FF45EAB2E9D2FACFFF71DB82CAA294699
:1055E000584600F04FFC00287FF452AB9AF80000B8
:1055F0002E992FAA95E60B9B069A1B681A60FFF757
:10560000C1B9D146DDF814A0C8F80090013725448F
:10561000072FCDE92D75C8F804407FF798AB81E4DA
:10562000149B169A1D44C4E900232D9B2E9501332B
:10563000072B2D9300F34A8104F108020029C0F2E0
:10564000E0820E99166001330D44072BCDE92D350C
:1056500051603FF734AB02F10804FEF7F2BF049942
:105660000B928D054ABF43F3C012DA175BB21146A5
:10567000FFF7F4B8154632464E46914601333D4495
:10568000072BCDE92D35C4F80090676000F3128137
:105690000834FFF7EDBB1C9B1999F61A1A463046E1
:1056A00000F042FD637803B101344FF0000CD6E600
:1056B00000231946CDF8008025AA584602F0C4FA06
:1056C00003460133089000F0FD822596089B002BCD
:1056D00036D0632B00F3E48000230A933FAE082208
:1056E00000214046FEF7CEF8089DCDF800802B46FD
:1056F00025AA3146584602F0A7FA854240F0A58314
:1057000008990B970023735421EAE1719DF88720D3
:105710000593029112930F930D93FEF7F4BF2D2280
:105720008DF88720FEF7DCBF09992CAA584600F0B7
:10573000A9FB00287FF4ACAA23992E9D2FACD9E6B3
:10574000089B9DF887200B970293059312930F9364
:105750000D930A93FEF7D7BFFCA20000CDCCCCCCB2
:105760002AAB019325AB0093022123AB9DED1E0BC9
:10577000059A584600F018FF049BD907064600F129
:10578000FC812A9B1B1A0E93239B0D930D9BDA1C05
:1057900003DB059A9A4280F28B810C9B023B0C93AF
:1057A0000D9B013B9DF8302023930021002BB8BFB7
:1057B0000D9B8DF89820BABFC3F101032D222B2237
:1057C000092B8DF8992040F365820DF1AF05B34F99
:1057D0002A461046A7FB0312D20802EB8201A3EB74
:1057E0004101303100F8011C19466329134600F1CC
:1057F000FF32EEDC303302F8013C831EAB4280F016
:1058000021830DF1990213F8011B02F8011FAB422D
:10581000F9D158AB181AA0F1AD0318930E9B189A42
:10582000012B1A44089240F35882089B149A13449F
:105830000893049B089A23F4806343F480730493D1
:1058400022EAE2720023129302920F930D93139BAC
:10585000002B40F01B819DF887200593FEF753BF76
:10586000DBB22A460B9193E40B9B069A1B681A80C5
:10587000FFF788B8DBB22A460B91FFF761B8099CA5
:105880002CAA2146584600F0FDFAA38903F04003F4
:10589000FEF766BE304600F013FD0146FEF7C0BFBE
:1058A000591C5846FEF792FA0646002800F0DB82A3
:1058B0000A9014E709992CAA584600F0E3FA002848
:1058C0007FF4E6A92E9D2FACFFF7D2BA09992CAA36
:1058D000584600F0D7FA00287FF4DAA9DDE92D3523
:1058E00023992FAAAAE606230A90059300E4059BB4
:1058F000022103F101082AAB019325AB00939DED32
:105900001E0B23AB4246584600F04EFE0C9B23F084
:105910002007462F064600EB080518BF452705D18E
:105920003378302B00F03C81239B1D44DDE91E01C0
:105930000022002304F026FC002840F059812A9B15
:10594000AB4206D230215A1C2A9219702A9B9D42E2
:10595000F9D8239A0D929B1B472F0E933FF416AF55
:10596000462F00F02B810D9B013B1BE723A89DEDEB
:105970001E0B00F011FD00224FF07F5351EC100B75
:1059800004F098F902460B46CDE9022300220023D9
:1059900004F0F8FB08B101232393059B404A0C98BF
:1059A000CDF820A0591E3F4B0D96612808BF1A461E
:1059B0003746A0460592DDE902458A46164609E0CB
:1059C000002200230AF1FF3904F0DCFB002840F03C
:1059D000BB81CA46344B00222046294604F06AF9AE
:1059E0000D46044604F016FC814604F0F9F8024620
:1059F0000B462046294603F0A5FF16F80930BAF1F8
:105A0000FF3F3A46044607F8013B0D46D8D1CDE9A1
:105A10000245264BDDF820A00D9E4446904600220C
:105A20004D4604F0D7FB002800F0FF81059BCDF820
:105A3000A880D97B17F8012C91423B4609D1302030
:105A400003F8010C2A9B5A1E2A9213F8012C91424A
:105A5000F6D0392A0BBF059A0132927AD2B203F8F6
:105A6000012C3B469B1B0C9A0E93239B0D93612AA2
:105A700003F1FF33239300F0B381412150220C91B5
:105A8000012193E6DDF81480032134E72D22002361
:105A90008DF887200593FEF739BE00BFCDCCCCCC66
:105AA000E0A20000CCA20000000030400000E03F77
:105AB000DDE90D23934200F3C480049B13F0010F32
:105AC0000D9B00F00F81149A13440893049B5F050B
:105AD00003D50D9B002B00F34781089B23EAE3735A
