:1000000000F0FF1F41020000F1020000E9020000C1
:10001000F1020000F1020000F10200000000000007
:10002000000000000000000000000000F1020000DD
:10003000F102000000000000F1020000F1020000E7
:10004000F1020000F1020000F1020000F1020000E4
:10005000F1020000F1020000F1020000F1020000D4
:10006000F1020000F1020000F1020000F1020000C4
:10007000F1020000F1020000F1020000F1020000B4
:10008000F1020000F1020000F1020000F1020000A4
:10009000F1020000F1020000F1020000F102000094
:1000A000F1020000F1020000F1020000F102000084
:1000B000F1020000F1020000F1020000F102000074
:1000C000F1020000F1020000F1020000F102000064
:1000D000F1020000F1020000F1020000F102000054
:1000E000F1020000F1020000F1020000F102000044
:1000F000F1020000F1020000F1020000F102000034
:10010000F1020000F1020000F1020000F102000023
:10011000F1020000F1020000F1020000F102000013
:10012000F1020000F1020000F1020000F102000003
:10013000F1020000F1020000F1020000F1020000F3
:10014000F1020000F1020000F1020000F1020000E3
:10015000F1020000F1020000F1020000F1020000D3
:10016000F1020000F1020000F1020000F1020000C3
:10017000F1020000F1020000F1020000F1020000B3
:10018000F1020000F1020000F1020000F1020000A3
:10019000F1020000F1020000F1020000F102000093
:1001A000F1020000F1020000F1020000F102000083
:1001B000F1020000F1020000F1020000F102000073
:1001C000F1020000F1020000F1020000F102000063
:1001D000F1020000F1020000F1020000F102000053
:1001E000F1020000F1020000F1020000F102000043
:1001F000F1020000F1020000F1020000F102000033
:1002000065210000F1020000F1020000F10200008F
:10021000F102000031210000F1020000F1020000B3
:10022000F1020000F1020000F1020000F102000002
:10023000F1020000F1020000F1020000F1020000F2
:1002400080B586B000AF234B7B607B6883F3098861
:1002500000BF00F0FBF8204B7B6119E000233B61FD
:100260000EE07B691A683B699B001A447B695968F8
:100270003B699B000B4412681A603B6901333B6188
:100280007B699B683A699A42EBD37B690C337B614B
:100290007B69124A9342E1D3114BFB6014E00023C7
:1002A000BB6009E0FB681A68BB689B00134400222E
:1002B0001A60BB680133BB60FB685B68BA689A422E
:1002C000F0D3FB680833FB60FB68064A9342E6D331
:1002D00007F090F900F0FF1F88320200943202000C
:1002E000943202009432020080B400AF00BFFDE7F8
:1002F00080B400AF00BFFDE780B483B000AF78608A
:10030000396004E07B685A1C7A6000221A703B68EE
:100310005A1E3A60002BF5D100BF00BF0C37BD4616
:100320005DF8047B7047000080B483B000AF424B9F
:100330001B685B0903F00703052B30D801A252F8B4
:1003400023F000BF5D0300006303000069030000A9
:100350009F0300009103000097030000374B7B6070
:1003600020E0364B7B601DE0334BDB6B03F03F033B
:100370000133324A02FB03F33B602F4B9B6B1B099B
:1003800003F00F0301333A68B2FBF3F37B6009E03B
:100390002B4B7B6006E04FF400437B6002E00023C0
:1003A0007B6000BF244B1B6903F00703062B39D881
:1003B00001A252F823F000BFD5030000DD030000C6
:1003C000E7030000F703000001040000110400002F
:1003D0001B0400001B4A7B68136027E07B685B08F6
:1003E000184A136022E07B68174AA2FB03235B08CC
:1003F000144A13601AE07B689B08124A136015E0E8
:100400007B68114AA2FB03239B080E4A13600DE090
:100410007B68DB080B4A136008E07B681B09094A0C
:10042000136003E0074B00221A6000BF00BF0C37C7
:10043000BD465DF8047B70470000014000093D00A7
:10044000A08601000000FD1FABAAAAAA80B400AFDD
:10045000454B464AC3F8002C434B454AC3F8002C91
:10046000414B00229A60434BD3F88830414A43F411
:100470007003C2F888304FF0804301225A6100BFF8
:100480004FF080435B6903F00203022BF8D13A4B33
:1004900000221A61384B01225A61374B80229A613F
:1004A000354B8122DA61344B83221A62324B0022AF
:1004B0009A62314B5C221A632F4B1B682E4A43F021
:1004C0000203136000BF2C4B5B6803F00203002B98
:1004D000F9D0294B00225A63274B01229A63264BFD
:1004E0003122DA63244B1B68234A43F01003136064
:1004F00000BF214B5B6803F01003002BF9D01E4BAB
:100500001B681D4A43F0400313601B4B1B6803F03C
:10051000E0031A4A1360184B5B6803F0E002174BC4
:100520001B689A42F1D14FF08043D3F80021144B5D
:100530001340134A934212D0124B134ADA604FF021
:100540008043D3F800310F4A1B0C93604FF0804377
:100550000C4AD3F8003153600A4B0022DA6000BF26
:10056000BD465DF8047B70470010014051E5CC1A90
:10057000AE1A33E500ED00E000000140940BFD1FD2
:10058000FF031F0000E0024054E5CC1A80B485B0A0
:1005900000AF78600023FB607B68002B1DD0002338
:1005A000BB6017E01049BA681346DB0013449B0098
:1005B0000B441B687A689A4209D1BA681346DB007B
:1005C00013449B000833084A1344FB6005E0BB68F2
:1005D0000133BB60BB68012BE4D9FB6818461437B4
:1005E000BD465DF8047B70470400FD1F80B586B0F2
:1005F00000AF7860396007F1100301211846FFF75A
:100600007BFE07F10C0301211846FFF775FE07F189
:10061000080301211846FFF76FFE7868FFF7B6FF61
:1006200078617B69002B02D03B68002B01D1042349
:1006300040E17B6803F14043A3F560331B0AFB7480
:10064000FB7C0F2B01D9042334E17B6901221A7052
:100650003B681B78002B02D0012B05D00AE03B7CC5
:1006600023F0E0033B7407E03B7C012262F3471375
:100670003B7401E004231DE13B7C43F001033B7428
:100680003B681B7A032B18D0032B1FDC002B02D0F6
:10069000022B09D01AE03B7A23F008033B723B7A25
:1006A00023F010033B7213E03B7A23F008033B7204
:1006B0003B7A43F010033B720AE03B7A43F00803B5
:1006C0003B723B7A43F010033B7201E00423F1E0FC
:1006D0003B685B7A032B2FD801A252F823F000BFAE
:1006E000F1060000030700001507000027070000BF
:1006F0003B7C23F008033B743B7A23F040033B72BE
:100700001CE03B7C43F008033B743B7A23F040033E
:100710003B7213E03B7C23F008033B743B7A43F0CD
:1007200040033B720AE03B7C43F008033B743B7A96
:1007300043F040033B7201E00423BBE03B689B7A3B
:10074000042B2AD801A252F823F000BF850700002D
:10075000610700006D070000790700008F070000A7
:100760003B7A012262F302033B7218E03B7A0222D9
:1007700062F302033B7212E03B7A032262F302034C
:100780003B720CE03B7A23F007033B7207E03B7AB5
:10079000042262F302033B7201E004238AE03B6817
:1007A000DB7A002B02D0012B05D009E03B7C23F043
:1007B00004033B7406E03B7C43F004033B7401E01C
:1007C000042377E03B685B7B012B04D13B7A43F049
:1007D00080033B7203E03B7A23F080033B723B686B
:1007E0001B7B012B04D13B7A43F020033B7203E0D7
:1007F0003B7A23F020033B727A68537843F08003FE
:1008000053703B685B681946786800F057F87B685E
:100810003A7C1A707B683A7B5A707B683A7A1A7114
:100820003B689B7B012B01D1012100E000217A680C
:10083000938961F3CF3393813B681B69002B38D0D8
:100840007A68938A43F0040393827A68938A43F028
:10085000080393827A68938A43F4006393823B6827
:100860001B691B78002B02D0012B06D00BE07A68A5
:10087000938A23F48073938207E07A68938A43F41F
:100880008073938201E0042314E03B681B695A786B
:100890007B681A763B681B699A787B685A767A6817
:1008A000938A43F0010393827A68938A43F00203A8
:1008B0009382002318461837BD4680BD80B584B0AA
:1008C00000AF78603960FFF72FFD7B68002B02D006
:1008D0003B68032B01D8042318E00E4B1A680E4B1B
:1008E000DB6903F0030322FA03F3FB60FA683B6859
:1008F000B2FBF3F39BB2013B9BB2C3F30E0399B27D
:100900007A68938961F30E039381002318461037A8
:10091000BD4680BD0000FD1F0000014080B483B0D3
:1009200000AF78600B46FB707B68002B01D104237D
:1009300014E0FB78002B02D0012B06D00BE07A6884
:10094000537843F00103537007E07A68537843F01B
:100950000203537001E0042300E0002318460C3723
:10096000BD465DF8047B704780B485B000AF786009
:100970000B46FB700023FB73FB78062B41D801A2CA
:1009800052F823F0A1090000AF090000BD090000E2
:10099000CB090000D9090000E7090000F5090000B3
:1009A0007B685B79C3F34013DBB2FB732AE07B689F
:1009B0005B79C3F30013DBB2FB7323E07B685B79E5
:1009C000C3F3C003DBB2FB731CE07B685B79C3F34A
:1009D0008003DBB2FB7315E07B685B79C3F34003F4
:1009E000DBB2FB730EE07B685B79C3F30003DBB221
:1009F000FB7307E07B689B8AC3F38023DBB2FB7346
:100A000000E000BFFB7B18461437BD465DF8047B51
:100A1000704700BF80B483B000AF78600B467B8026
:100A20007B68002B01D1042303E07B687A881A815C
:100A3000002318460C37BD465DF8047B7047000064
:100A400080B485B000AF78600023FB607B68002B2A
:100A50001ED00023BB6018E01149BA681346DB00C2
:100A600013449B000B4404331B687A689A4209D1F3
:100A7000BA681346DB0013449B000833084A13444A
:100A8000FB6005E0BB680133BB60BB68012BE3D9A9
:100A9000FB6818461437BD465DF8047B704700BFFD
:100AA0000400FD1F80B588B000AF7860396007F1A1
:100AB000140301211846FFF71FFC07F11003012161
:100AC0001846FFF719FC07F10C0301211846FFF740
:100AD00013FC07F1080301211846FFF70DFC7B68A2
:100AE00003F14043A3F560331B0AFB77FB7F0F2B19
:100AF00001D904239FE07868FFF7A2FFB861BB69C2
:100B0000002B02D03B68002B01D1042393E0BB698A
:100B100003221A703B681B78012B0ED83B7D042200
:100B200062F347133B7500BF3B7C43F020033B74EB
:100B30003B681B78012B18D101E004237BE03B6864
:100B40001B7A03F07F03DAB23B7B62F306033B734D
:100B50003B7B43F080033B733B685B7A03F07F038E
:100B6000DAB23B7A62F306033B723B7A43F08003CE
:100B70003B727B683A7D1A707B6800225A743B682E
:100B8000DB7A012B05D17A68537943F02003537146
:100B900004E07A68537923F0200353713B685B6863
:100BA0001946786800F04CF87B683A7C5A707B688C
:100BB0003A7B1A747B683A7A5A743B68DB68002B7C
:100BC00038D07A68938A43F0040393827A68938AD0
:100BD00043F0080393827A68938A43F40063938214
:100BE0003B68DB681B78002B02D0012B06D00BE0A2
:100BF0007A68938A23F48073938207E07A68938AF1
:100C000043F48073938201E0042314E03B68DB68C3
:100C10005A787B681A763B68DB689A787B685A76E4
:100C20007A68938A43F0010393827A68938A43F047
:100C300002039382002318462037BD4680BD000082
:100C400080B584B000AF786039600023FB73FFF794
:100C50006BFB7B68002B03D03B681B4A934201D996
:100C600004232CE07B685B7CC3F3C013DBB2FB7313
:100C70007A68537C43F080035374144B1A68144B06
:100C8000DB6903F0030322FA03F3BB60BA683B6835
:100C9000B2FBF3F39BB2013B9BB2C3F30E0399B2D9
:100CA0007A68938961F30E039381FB7B03F0010360
:100CB000D9B27A68537C61F3C71353740023184682
:100CC0001037BD4680BD00BF801A06000000FD1F22
:100CD0000000014080B485B000AF7860144B1B6801
:100CE000FB607B68002B01D104231BE07A685378FA
:100CF00043F0800353700FE07B685B78C3F3C0134D
:100D0000DBB2012B08D17B685B78C3F38013DBB2C5
:100D1000012B01D1002305E0FB685A1EFA60002B6D
:100D2000EAD1092318461437BD465DF8047B7047A5
:100D30000000FD1F80B485B000AF7860154B1B68C4
:100D4000FB607B68002B19D104231DE07B685B7876
:100D5000DBB203F03E03DAB27B685A707B685B78E3
:100D6000C3F3C013DBB2002B08D17B685B78C3F3FD
:100D70008013DBB2002B01D1002305E0FB685A1E73
:100D8000FA60002BE2D1092318461437BD465DF8FE
:100D9000047B70470000FD1F80B483B000AF786013
:100DA0000B46FB707B68002B01D1042304E0FB7829
:100DB0009AB27B681A81002318460C37BD465DF84D
:100DC000047B704780B485B000AF78600B46FB7041
:100DD0007B685B783B737B68002B01D1042315E0B3
:100DE000FB78002B05D101223B7B62F345133B735B
:100DF00004E000223B7B62F345133B733B7B23F013
:100E000040033B737B683A7B5A70002318461437C3
:100E1000BD465DF8047B704780B485B000AF786054
:100E20007B681B79C3F38013DBB2FB73FB7B184633
:100E30001437BD465DF8047B7047000080B485B070
:100E400000AF78600B46FB700023FB73FB780B2B25
:100E50007BD801A252F823F0890E0000970E000003
:100E6000A50E0000B30E0000C10E0000CF0E000062
:100E7000DD0E0000EB0E0000F90E0000070F000071
:100E8000150F0000230F00007B685B79C3F3C003DC
:100E9000DBB2FB735AE07B685B79C3F38003DBB2A0
:100EA000FB7353E07B685B79C3F34003DBB2FB73F6
:100EB0004CE07B685B79C3F30003DBB2FB7345E076
:100EC0007B689B8AC3F38023DBB2FB733EE07B68C5
:100ED0001B79C3F3C013DBB2FB7337E07B681B796C
:100EE000C3F34013DBB2FB7330E07B681B79C3F3C1
:100EF0004003DBB2FB7329E07B681B79C3F300037B
:100F0000DBB2FB7322E07B685B78C3F34003DBB2A8
:100F1000FB731BE07B685B78C3F30003DBB2FB73FE
:100F200014E07B685B78C3F3C013DBB2002B09D1FC
:100F30007B685B78C3F38013DBB2012B02D1012302
:100F4000FB7303E00023FB7300E000BFFB7B18464C
:100F50001437BD465DF8047B704700BF80B483B092
:100F600000AF78600B46FB707B68002B01D1042337
:100F70003DE0FB780B2B36D801A252F823F000BFDE
:100F8000B10F0000EB0F0000EB0F0000EB0F0000B3
:100F9000BD0F0000EB0F0000EB0F0000C90F0000B9
:100FA000EB0F0000EB0F0000D50F0000EB0F00006F
:100FB0007A68537943F08003537117E07A68938A13
:100FC00023F48063938211E07A68137923F002039B
:100FD00013710BE07B685B78DBB223F04103DAB27C
:100FE0007B685A7002E0042301E000BF002318462A
:100FF0000C37BD465DF8047B704700BF80B483B0FA
:1010000000AF0346FB71FB79322B00F2218101A274
:1010100052F823F0E1100000F1110000E910000087
:10102000F1100000F910000001110000091100008A
:1010300011110000191100002111000029110000F8
:101040003111000039110000411100004911000068
:1010500051110000591100006111000069110000D8
:101060007111000079110000811100008911000048
:101070009111000099110000A1110000A9110000B8
:10108000B1110000B9110000C1110000C911000028
:10109000D1110000D9110000E1110000E911000098
:1010A00055120000411200004912000039120000E0
:1010B0002912000031120000211200000912000064
:1010C0001112000019120000F911000001120000B5
:1010D0005512000055120000551200005512000074
:1010E000604B01221A70B6E05F4B01221A70B2E029
:1010F0005E4B01221A70AEE05D4B01221A70AAE02D
:101100005C4B01221A70A6E05B4B01221A70A2E030
:101110005A4B01221A709EE0594B01221A709AE034
:10112000584B01221A7096E0574B01221A7092E038
:10113000564B01221A708EE0554B01221A708AE03C
:10114000544B01221A7086E0534B01221A7082E040
:10115000524B01221A707EE0514B01221A707AE044
:10116000504B01221A7076E04F4B01221A7072E048
:101170004E4B01221A706EE04D4B01221A706AE04C
:101180004C4B01221A7066E04B4B01221A7062E050
:101190004A4B01221A705EE0494B01221A705AE054
:1011A000484B01221A7056E0474B01221A7052E058
:1011B000464B01221A704EE0454B01221A704AE05C
:1011C000444B01221A7046E0434B01221A7042E060
:1011D000424B01221A703EE0414B01221A703AE064
:1011E000404B01221A7036E03F4B01221A7032E068
:1011F0003E4B01221A702EE03D4B01221A702AE06C
:101200003C4B01221A7026E03B4B01221A7022E06F
:101210003A4B01221A701EE0394B01221A701AE073
:10122000384B01221A7016E0374B01221A7012E077
:10123000364B01221A700EE0354B01221A700AE07B
:10124000344B01221A7006E0334B01221A7002E07F
:10125000042301E000BF002318460C37BD465DF8AB
:10126000047B7047702078426020784240207842AA
:1012700044207842482078424C207842002078422E
:1012800004207842082078420C20784210207842CE
:1012900014207842182078421C207842202078427E
:1012A00024207842282078422C207842302078422E
:1012B00034207842382078423C20784240227842DC
:1012C00044227842482278424C22784220227842B6
:1012D00024227842282278422C2278420022784226
:1012E00004227842082278420C2278426820784210
:1012F000002478420424784210247842142478424E
:1013000018247842202478424024784244247842A9
:1013100050247842602478426424784280B483B0B8
:1013200000AF0346FB7197F90730002B0BDBFB790D
:1013300003F01F02074997F907305B09012000FA03
:1013400002F241F8232000BF0C37BD465DF8047B54
:10135000704700BF00E100E080B483B000AF0346F7
:10136000FB7197F90730002B0CDBFB7903F01F02B0
:10137000074997F907305B09012000FA02F2603350
:1013800041F8232000BF0C37BD465DF8047B704751
:1013900000E100E080B483B000AF03463960FB7128
:1013A00097F90730002B0ADB3B68DAB20C4997F952
:1013B00007301201D2B20B4483F800230AE03B68E5
:1013C000DAB20849FB7903F00F03043B1201D2B2F1
:1013D0000B441A7600BF0C37BD465DF8047B70479E
:1013E00000E100E000ED00E080B582B000AF002039
:1013F00000F01EF90E4B7B6002E07B68013B7B60D6
:101400000C4B1B7ADBB2022B02D17B68002BF4D190
:101410007B68002B04D0074B1B7ADBB2002B01D07A
:101420000A2300E0002318460837BD4680BD00BFF0
:10143000A08601000010064080B584B000AF78603F
:101440007B68002B01D10423C6E07B681B6803F096
:101450000303002B01D00223BEE0FFF7C5FF0346C4
:10146000002B01D00A23B7E07B68DB685C4A13607D
:101470007B681B695A4A53607B689B69584AD360F2
:101480007B685B69564A93607B68DB68002B03D1FD
:101490007B681B69002B0DD07B685B7A012B09D11F
:1014A0005B20FFF759FF5B20FFF738FF0F215B2020
:1014B000FFF770FF7B689B69002B03D17B685B693A
:1014C000002B0DD07B685B7A012B09D17020FFF7D0
:1014D00043FF7020FFF722FF0F217020FFF75AFF14
:1014E000404A7B681B6813607B681B79012B01D124
:1014F000012200E000223B7B62F300033B737B6828
:101500005B79012B01D1012200E000223B7B62F3D9
:1015100041033B737B689B79012B01D1012200E0E1
:1015200000223B7B62F382033B737B68DB79012BF8
:1015300001D1012200E000223B7B62F3C3033B7335
:101540007B681B7A072B41D801A252F823F000BF19
:10155000711500007B150000871500009315000031
:101560009F150000AB150000B7150000C315000063
:101570003B7B23F070033B732AE03B7B012262F349
:1015800006133B7324E03B7B022262F306133B739A
:101590001EE03B7B032262F306133B7318E03B7BA8
:1015A000042262F306133B7312E03B7B052262F3D5
:1015B00006133B730CE03B7B062262F306133B737E
:1015C00006E03B7B43F070033B7301E0042303E040
:1015D000044A3B7B5372002318461037BD4680BD3A
:1015E000980BFD1F0010064080B483B000AF034687
:1015F0000A46FB711346BB80BB88B3F5804F01D30D
:1016000004230DE0BB8803F00303002B01D0022369
:1016100006E0FA79BB881B04044913434B6000239E
:1016200018460C37BD465DF8047B70470010064035
:1016300080B483B000AF0346FB71FB79052B27D83C
:1016400001A252F823F000BF6116000069160000E5
:10165000711600007916000081160000891600003E
:10166000104B04221A7215E00E4B08221A7211E078
:101670000C4B10221A720DE00A4B20221A7209E05C
:10168000084B40221A7205E0064B80221A7201E0D4
:10169000042300E0002318460C37BD465DF8047BA8
:1016A000704700BF0010064080B487B000AF03460B
:1016B000FB71FB7903F01F03FB75FB7D012202FA2E
:1016C00003F33B61FB795B09FB73FA7B094B134422
:1016D0009B001A68F97B074B0B449B0019463B693A
:1016E00013430B60002318461C37BD465DF8047B8E
:1016F000704700BF0484011080B487B000AF034678
:10170000FB71FB7903F01F03FB75FB7D012202FADD
:1017100003F33B61FB795B09FB73FA7B084B1344D2
:101720009B001A683B6913403A699A4201D1012330
:1017300000E0002318461C37BD465DF8047B704767
:101740000C84011080B487B000AF0346FB71FB79B5
:1017500003F01F03FB75FB7D012202FA03F33B61DB
:10176000FB795B09FB73FA7B064B13449B001A461B
:101770003B691360002318461C37BD465DF8047BA7
:10178000704700BF1484011080B487B000AF0346D7
:10179000FB71FB7903F01F03FB75FB7D012202FA4D
:1017A00003F33B61FB795B09FB73FA7B0A4B134440
:1017B0009B0019683B69DA43F87B074B03449B00A5
:1017C000184601EA02030360002318461C37BD4691
:1017D0005DF8047B704700BF2484011080B584B09D
:1017E00000AF0346FB71FB79DA2B05D0DB2B07D169
:1017F0000F4BDB68FB6006E00D4B9B68FB6002E073
:101800000023FB6000BFFB791846FFF775FF034616
:10181000012B08D1FB791846FFF794FFFB68002BDA
:1018200001D0FB68984700BF1037BD4680BD00BFA0
:10183000980BFD1F80B483B000AF0346FB7197F98E
:101840000730002B0BDBFB7903F01F02074997F9E8
:1018500007305B09012000FA02F241F8232000BFA3
:101860000C37BD465DF8047B704700BF00E100E027
:1018700080B483B000AF0346FB7197F90730002BAB
:101880000CDBFB7903F01F02074997F907305B096E
:10189000012000FA02F2603341F8232000BF0C3728
:1018A000BD465DF8047B704700E100E080B483B082
:1018B00000AF03463960FB7197F90730002B0ADB54
:1018C0003B68DAB20C4997F907301201D2B20B44E7
:1018D00083F800230AE03B68DAB20849FB7903F099
:1018E0000F03043B1201D2B20B441A7600BF0C372F
:1018F000BD465DF8047B704700E100E000ED00E0CC
:1019000080B485B000AF78600023FB7316E0FA7BEB
:101910000F4913465B0013441B010B441B687A6894
:101920009A4208D1FA7B13465B0013441B01084A14
:101930001344043306E0FB7B0133FB73FB7B002B7A
:10194000E5D0002318461437BD465DF8047B704788
:101950004C00FD1F80B582B000AF786039607B68B5
:101960005B6AC3F3C073DBB2012B0BD17A68536A95
:1019700023F0004353623B689B68002B02D03B6816
:101980009B6898477B685B6AC3F38073DBB2012B6B
:101990000BD17A68536A23F0804353623B689B699A
:1019A000002B02D03B689B6998477B685B6AC3F356
:1019B0004073DBB2012B0BD17A68536A23F00053DA
:1019C00053623B68DB68002B02D03B68DB689847BA
:1019D0007B685B6AC3F30073DBB2012B0BD17A68BF
:1019E000536A23F0805353623B685B68002B02D03C
:1019F0003B685B6898477B685B6AC3F3C063DBB294
:101A0000012B0BD17A68536A23F0006353623B6861
:101A10001B68002B02D03B681B6898477B685B6A99
:101A2000C3F38063DBB2012B0BD17A68536A23F0D6
:101A3000806353623B681B69002B02D03B681B69C3
:101A400098477B685B6AC3F34063DBB2012B0BD121
:101A50007A68536A23F0007353623B68DB69002B9A
:101A600002D03B68DB6998477B685B6AC3F300631D
:101A7000DBB2012B0BD17A68536A23F08073536277
:101A80003B681B6A002B02D03B681B6A98477B6847
:101A90005B6AC3F3C043DBB2012B0BD17A68536A94
:101AA00023F4002353623B685B6A002B02D03B683F
:101AB0005B6A98477B685B6AC3F30043DBB2012B28
:101AC00006D13B689B6A002B02D03B689B6A984713
:101AD0007B685B6AC3F34043DBB2012B07D13B68F1
:101AE0005B69002B03D03B685B69984700BF00BF70
:101AF0000837BD4680BD80B582B000AF78607520E4
:101B0000FFF7B6FE7520FFF795FE0F217520FFF752
:101B1000CDFE00BF0837BD4680BD000080B400AFD9
:101B2000054A536823F00103536000231846BD465D
:101B30005DF8047B704700BF00D0034080B483B0E1
:101B400000AF78607B68074A934204D1064A136865
:101B500043F00103136000BF0C37BD465DF8047B02
:101B6000704700BF00C0064000D0034080B483B07F
:101B700000AF78607B68074A934204D1064A136835
:101B800023F00103136000BF0C37BD465DF8047BF2
:101B9000704700BF00C0064000D0034080B584B04D
:101BA00000AF786039607B68002B02D03B68002B67
:101BB00001D104237DE27868FFF7A2FEF860FB689C
:101BC000002B01D1042374E27A68936923F00103A6
:101BD00093613B681B7803F03F03D9B27A6893683E
:101BE00061F39F6393603B685B88C3F3090399B219
:101BF0007A68936861F3194393603B681B7903F03B
:101C00000103D9B27A68936861F38E3393603B68BD
:101C10005B7903F00103D9B27A68936861F34D33BD
:101C200093603B689B7903F00103D9B27A689368AB
:101C300061F30C3393603B68DB7903F00103D9B2A5
:101C40007A68936861F3CB2393603B681B7A03F057
:101C50000103D9B27A68936861F38A2393603B6881
:101C60005B7A03F00103D9B27A68936861F3492380
:101C700093603B689B7A03F00103D9B27A6893685A
:101C800061F3082393603B68DB7A03F00103D9B268
:101C90007A68936861F3C71393603B681B7B03F01A
:101CA0000103D9B27A68936861F3041393603B68C7
:101CB0005B7B03F00103D9B27A68936861F3C303D5
:101CC00093603B689B7B03F00103D9B27A68936809
:101CD00061F3820393603B68DB7B03F00103D9B2BD
:101CE0007A68936861F3410393603B681B7C03F05F
:101CF0000103D9B27A68936861F3000393603B688B
:101D00005B7C03F01F03D9B27A68D36861F38E233A
:101D1000D3603B689B7C03F01F03D9B27A68D36819
:101D200061F34913D3603B68DB7C03F01F03D9B236
:101D30007A68D36861F30403D3603B681B7D03F0CA
:101D40001F03D9B27A68D36861F39E63D3603B689E
:101D50005B7D03F01F03D9B27A68D36861F35953EE
:101D6000D3603B689B7D03F01F03D9B27A68D368C8
:101D700061F31443D3603B689A697B681A613B68DE
:101D8000DA697B685A613B6893F82530012B14BFF0
:101D900001230023DBB203F00103D9B27A68136A8E
:101DA00061F3596313623B6893F82630012B14BF2B
:101DB00001230023DBB203F00103D9B27A68136A6E
:101DC00061F3514313623B6893F8203003F00F0333
:101DD000D9B27A68136A61F30B2313623B6893F8F4
:101DE000213003F00F03D9B27A68136A61F3030359
:101DF00013623B6893F82230032B25D801A252F8D6
:101E000023F000BF151E0000211E00002F1E000041
:101E10003D1E00007A68136A23F03003136215E058
:101E20007A68136A012161F3051313620EE07A6880
:101E3000136A022161F30513136207E07A68136ADB
:101E400043F03003136201E0042332E13B689B6AF4
:101E5000002B00F0B0803B689B6A1B78012B14BFFD
:101E600001230023DBB203F00103D9B27A68136ABD
:101E700061F3DB6313623B689B6A5B78012B14BFE1
:101E800001230023DBB203F00103D9B27A68136A9D
:101E900061F39E7313623B689B6A9B78012B14BFAE
:101EA00001230023DBB203F00103D9B27A68136A7D
:101EB00061F35D7313623B689B6ADB78012B14BF8F
:101EC00001230023DBB203F00103D9B27A68136A5D
:101ED00061F31C7313623B689B6A1B79012B14BF6F
:101EE00001230023DBB203F00103D9B27A68136A3D
:101EF00061F39A6313623B689B6A5B79012B14BFA1
:101F000001230023DBB203F00103D9B27A68136A1C
:101F100061F3186313623B689B6A9B79012B14BFC2
:101F200001230023DBB203F00103D9B27A68136AFC
:101F300061F3555313623B689B6ADB79012B14BF35
:101F400001230023DBB203F00103D9B27A68136ADC
:101F500061F3145313623B689B6A1B7A012B14BF15
:101F600001230023DBB203F00103D9B27A68136ABC
:101F700061F3D34313623B689B6A5B7A012B14BF06
:101F800001230023DBB203F00103D9B27A68136A9C
:101F900061F3924313623B689B6A9B7A012B14BFE7
:101FA00001230023DBB203F00103D9B27A68136A7C
:101FB00061F3104313623B68DB6A002B36D03B6849
:101FC000DB6A1A68FB681A603B68DB6A5A68FB6860
:101FD0005A603B68DB6A9A68FB689A603B68DB6A18
:101FE000DA68FB68DA603B68DB6A1A69FB681A61C9
:101FF0003B68DB6A5A69FB685A613B68DB6A9A692D
:10200000FB689A613B68DB6ADA69FB68DA613B6806
:10201000DB6A1A6AFB681A623B68DB6A5A6AFB6809
:102020005A623B68DB6A9A6AFB689A623B6893F87B
:102030003030012B02D17868FFF75DFD3B6893F8E3
:102040002330002B14BF01230023DBB203F0010374
:10205000D9B27A68936961F3104393613B6893F84E
:102060002330002B01D1012100E000217A68936820
:1020700061F3861393603B6893F82430002B14BF00
:1020800001230023DBB203F00103D9B27A6893691C
:1020900061F3186393613B6893F82430002B01D1FE
:1020A000012100E000217A68936861F34513936091
:1020B000002318461037BD4680BD00BF80B483B0F2
:1020C00000AF78607A68936943F00103936100235D
:1020D00018460C37BD465DF8047B704780B483B06A
:1020E00000AF78607A68936943F4803393617A68CB
:1020F000936823F040039360002318460C37BD46D5
:102100005DF8047B704780B483B000AF78607A6874
:10211000936943F0807393617A68936823F0200396
:102120009360002318460C37BD465DF8047B70476A
:1021300080B582B000AF084BD3F8D8337B607B68A2
:1021400003F00103002B03D004490548FFF702FC0C
:1021500000BF0837BD4680BD001003405000FD1F82
:1021600000C0064080B500AFDA20FFF7C5FA03468D
:10217000012B02D1DA20FFF731FBDB20FFF7BCFA9D
:102180000346012B02D1DB20FFF728FB00BF80BDF7
:1021900080B500AF0C4B1B6809211846FEF74EFEB8
:1021A0000346012B01D101230BE0074B1B680021E3
:1021B0001846FEF743FE0346012B01D1012300E040
:1021C0000023184680BD00BFA80BFD1F80B582B05C
:1021D00000AF0346FB711C4B1B68FA791146184689
:1021E000FEF7DAFD184B1B6800211846FEF7EAFDE2
:1021F000154B1B681846FEF76DFD0346002B01D0FA
:1022000009231CE0104B1B680A211846FEF716FE36
:102210000346012B00D1F5E700BF0B4B1B681846A6
:10222000FEF7FAFD0346012B01D1012307E0FFF77A
:10223000AFFF0346012B01D1012300E00023184624
:102240000837BD4680BD00BFA80BFD1F80B584B018
:1022500000AF78600B46FB700023FB730023FB7319
:1022600038E0214B1B680A211846FEF7E7FD0346BC
:10227000012B00D0F5E700BF1B4B1868FB7B7A6889
:1022800013441B781946FEF787FD174B1B680A217C
:102290001846FEF763FE144B1B6802211846FEF732
:1022A000CDFD0346012B00D0F5E700BF0E4B1B68A8
:1022B0001846FEF7B1FD0346012B01D101230EE0C4
:1022C000FFF766FF0346012B01D1012307E0FB7BEB
:1022D0000133FB73FA7BFB789A42C2D30023184682
:1022E0001037BD4680BD00BFA80BFD1F80B500AFF5
:1022F000174B1B681846FEF71DFD0346002B01D047
:10230000092322E0124B1B6807211846FEF796FDB1
:102310000346012B00D0F5E700BF0D4B1B680921D8
:102320001846FEF78BFD0346012B01D101230CE07B
:10233000074B1B6807211846FEF710FE044B1B686D
:102340000A211846FEF70AFE0023184680BD00BF8A
:10235000A80BFD1F80B584B000AF03460A46FB7191
:102360001346BB8097F907305B005AB2BB881B0A43
:102370009BB25BB203F001035BB213435BB2DBB20F
:102380003B73BB88DBB27B733420FFF71FFF07F181
:102390000C0302211846FFF759FFFFF7A7FF00BF04
:1023A0001037BD4680BD000080B586B000AF7860B4
:1023B00039607B68002B02D03B68002B01D10423DD
:1023C0007BE007F1080310211846FDF795FF3D4A11
:1023D0007B68136000233B723B4BFB600023BB74A4
:1023E0000023FB7400237B61364B1B6807F1080256
:1023F00011461846FEF756FB0346002B01D0012379
:102400005BE03B689B8A9BB219460F20FFF7A2FF57
:1024100012210620FFF79EFF3B681B889BB21946DE
:102420000020FFF797FF3B685B889BB219460120AD
:10243000FFF790FF3B689B889BB219460220FFF78D
:1024400089FF3B68DB889BB219460320FFF782FFB8
:102450003B681B899BB219460420FFF77BFF3B6852
:102460005B899BB219460520FFF774FF3B68DB8947
:102470009BB219460720FFF76DFF3B681B8A9BB292
:1024800019460820FFF766FF3B685B8A9BB2194636
:102490000920FFF75FFF3B689B899BB21946062026
:1024A000FFF758FF3B689B889AB2084B1A803B683D
:1024B000DB889AB2064B1A80002318461837BD46AF
:1024C00080BD00BFA80BFD1F801A0600AC0BFD1FCE
:1024D000AE0BFD1F80B483B000AF78604FF0FF33C8
:1024E00018460C37BD465DF8047B704780B483B056
:1024F00000AF786039603B684FF400525A600023A7
:1025000018460C37BD465DF8047B704780B400AFB9
:1025100001231846BD465DF8047B704780B483B044
:1025200000AF7860012318460C37BD465DF8047B88
:10253000704780B582B000AF7860396005F0A8FFC1
:10254000034616221A604FF0FF3318460837BD467F
:1025500080BD80B485B000AFF860B9607A604FF09C
:10256000FF3318461437BD465DF8047B704780B4CE
:1025700085B000AFF860B9607A604FF0FF3318465D
:102580001437BD465DF8047B704780B485B000AF5A
:10259000F860B9607A604FF0FF3318461437BD46D3
:1025A0005DF8047B704780B582B000AF78600B4661
:1025B000FB701346BB7000F08BFB786800F026FBC5
:1025C000BA78FB781146184600F01CF8FB781846DC
:1025D00000F008FA00F068F800BF0837BD4680BD7B
:1025E00080B500AF0648FFF7A9FA0548FFF776FD6A
:1025F0000348FFF788FD0248FFF760FD00BF80BD7C
:1026000000C0064080B588B000AF03460A46FB71A3
:102610001346BB71204BD3F81C3623F440231E4ACB
:1026200043F40023C2F81C361C4B01221A701A4BCB
:10263000D3F81C3623F44013174A43F40013C2F8AE
:102640001C36174B01221A7007F108031621184691
:10265000FDF752FE0023BB8317233B8117237B81A9
:102660007823BB817823FB81BB799BB23B8200231B
:102670007B825323FB82FB799BB23B8301237B83C9
:102680000223BB8207F1080319460648FFF78CFEB8
:1026900000BF2037BD4680BD00F00640A801DE42E5
:1026A000AC01DE420082034080B588B000AF3B1D24
:1026B0001C211846FDF720FE1C21AC48FDF71CFE2E
:1026C0001C21AB48FDF718FE00BFFEF78DFE034648
:1026D000002B14BF01230023DBB2002BF5D1A34A4A
:1026E000137843F003031370A04A137823F00C030C
:1026F00013709E4A137843F0100313709B4A1378AB
:10270000032161F347131370984A5378022161F350
:1027100001035370954A537823F01C035370934A76
:102720005378052161F347135370904A9378102131
:1027300061F3050393708D4A937843F040039370DF
:102740008A4A937823F080039370884AD3780121D2
:1027500061F30103D370854AD37823F00C03D3705F
:10276000824B1B681B0EDAB2804B1B681B0DDBB261
:102770005340DAB27D4B1B681B0CDBB25340DAB21C
:102780007A4B1B681B0BDBB25340DAB2774B1B68EA
:102790001B0ADBB25340DAB2744B1B681B09DBB275
:1027A0005340DBB203F00F03D9B2704AD37861F320
:1027B0000713D3706D4B0122DA806C4B00221A7123
:1027C0006A4B1A79694B5A7101F00AFF03461A469F
:1027D000664B9A60654B674ADA60644A634B5B6894
:1027E0001361624B9B68614A53610021DB20FEF755
:1027F000FBFE5E4A137F43F0030313775B4A137FAC
:1028000023F00C031377594A137F43F01003137717
:10281000564A137F052161F347131377534A537FB9
:10282000022161F301035377504A537F052161F37D
:10283000840353774D4A537F23F0E00353774B4A89
:10284000937F102161F305039377484A937F43F008
:1028500040039377454A937F23F080039377434A5D
:10286000D37F012161F30103D377404AD37F23F063
:102870000C03D3773D4BDB691B0EDAB23B4BDB69B4
:102880001B0DDBB25340DAB2384BDB691B0CDBB2F9
:102890005340DAB2354BDB691B0BDBB25340DAB283
:1028A000324BDB691B0ADBB25340DAB22F4BDB69D8
:1028B0001B09DBB25340DBB203F00F03D9B22B4A42
:1028C000D37F61F30713D377284B01225A84274B18
:1028D000002283F82020254B93F82020234B83F8F7
:1028E0002120224B244A5A6201F08EFE03461A46EA
:1028F0001E4B9A621D4A1D4B1B6AD3621B4B9B6A7F
:102900001A4A53631C21DA20FEF76EFE174B7B60D8
:1029100000233B7200237B720023BB720023FB72F7
:1029200007233B7301237B73144BFB61144BBB6187
:102930003B1D1846FEF780FD0220FEF779FE0320BE
:10294000FEF776FE0520FEF773FEDB20FEF7ACFEF9
:10295000DB20FEF7F7FEDA20FEF7A6FEDA20FEF710
:10296000F1FE00BF2037BD4680BD00BFB00BFD1F8C
:10297000CC0BFD1F04C0064000C0064085290000A6
:10298000B529000080B582B000AF01F029FE786063
:102990007B68002B01D100F097FA7B68044A9360B2
:1029A000DB20FEF7F1FE00BF0837BD4680BD00BF4B
:1029B000B00BFD1F80B582B000AF01F025FE78603E
:1029C0007B68002B01D100F07FFA7B68044A936298
:1029D000DA20FEF7D9FE00BF0837BD4680BD00BF34
:1029E000B00BFD1F80B59EB000AF0346FB7107F131
:1029F0006C030B211846FDF77FFC07F138033421E7
:102A00001846FDF779FC07F10C032C211846FDF759
:102A100073FC2720FEF7F2FA724BD3F8603623F0EE
:102A20000303704A43F00103C2F860366E4B012283
:102A30001A706C4BD3F8603623F44063694A43F450
:102A40008063C2F86036694B01221A70654BD3F877
:102A5000603623F44073634A43F48073C2F86036EF
:102A6000634B01221A705F4BD3F8603623F03003BA
:102A70005C4A43F01003C2F860365E4B01221A70C4
:102A8000584BD3F8603623F0C003564A43F0400356
:102A9000C2F86036584B01221A705848FFF766F8A2
:102AA000FFF73CF8564A136843F002031360002313
:102AB0007B63002387F86C30002387F86D30002398
:102AC00087F86E30002387F86F30002387F8703066
:102AD000002387F87130002387F87230002387F8CD
:102AE0007330002387F87430002387F87530002393
:102AF00087F87630002387F83830FB790C2B02D129
:102B00004FF4B0737B87FB79182B01D140237B876F
:102B1000FB79002B01D120237B87FB791C2B01D172
:102B200060237B87002387F83C30002387F83D3003
:102B3000002387F83E30012387F83F30002387F8D1
:102B40004030002387F84130002387F842300023CB
:102B500087F84330002387F84430012387F8453055
:102B6000002387F84630002387F84730002387F892
:102B70004830012387F849300F2387F84A300F2364
:102B800087F84B3003233B65042387F85830042330
:102B900087F85930002387F85A30002387F85B30D4
:102BA000002387F85C30012387F85D30012387F824
:102BB0005E30144B01221A70134B01221A7007F178
:102BC0006C033B6607F10C037B66012387F86830D2
:102BD00007F1380319460948FEF7E0FF00BF7837D0
:102BE000BD4680BD00F00640B402DE42B802DE42BF
:102BF0008001DE428401DE42BC02DE4200C00640AB
:102C000000D003402005D8426005D84280B588B086
:102C100000AF786007F10C0314211846FDF76CFB38
:102C200000233B737B683B6100233B7500237B756E
:102C30000023BB750023FB7500233B7600237B76C6
:102C40000023BB760023FB611C4BD3F81C3623F01A
:102C500030031A4A43F01003C2F81C36184B012205
:102C60001A70184B00221A70144BD3F81C3623F03C
:102C7000C003124A43F04003C2F81C36124B012233
:102C80001A7007F10C0319461048FDF7AFFC034614
:102C9000002B14BF01230023DBB2002B01D000BFA7
:102CA000FDE700210948FDF739FE01210748FDF73E
:102CB00035FE00BF2037BD4680BD00BF00F0064096
:102CC0000401DE427CA0DE420801DE4200800340B7
:102CD00080B487B000AF0023BB7500237B75012350
:102CE0007B752B4B00221A702A4B7A7D1A702A4B67
:102CF00001221A70294B00221A700023BB74002392
:102D00007B7401237B74264B00221A70254B7A7C3E
:102D10001A70254B01221A70244B00221A700023CE
:102D2000BB7300237B7301237B73214B00221A703A
:102D3000204B7A7B1A70204B01221A701F4B002205
:102D40001A700023BB7200237B7201237B721C4B21
:102D500000221A701B4B7A7A1A701B4B01221A70D0
:102D60001A4B00221A700023BB7100237B710023D1
:102D7000BB71174BBA791A70164B00221A70164B9A
:102D800000221A7000BF1C37BD465DF8047B7047F7
:102D900028A0DE42A880DE42A840DE42A800DE4233
:102DA00048A0DE428885DE428845DE428805DE4254
:102DB00020A0DE42A080DE42A040DE42A000DE4233
:102DC00000A0DE428080DE428040DE428000DE42A3
:102DD0000021DE420041DE420001DE4280B483B0C9
:102DE00000AF03460A46FB711346BB71FB79042B07
:102DF0001DD801A252F823F0152E00001D2E000050
:102E0000252E00000D2E00002D2E00000B4ABB7950
:102E100013700CE00A4ABB79137008E0094ABB79C9
:102E2000137004E0084ABB79137000E000BF00BFD4
:102E30000C37BD465DF8047B704700BF8080DE42E2
:102E4000A880DE428885DE42A080DE4280B582B066
:102E500000AF786015E000BF04210E48FDF784FD47
:102E60000346012B14BF01230023DBB2002BF3D157
:102E70007B681B7819460748FDF7CCFD7B6801335A
:102E80007B607B681B78002BE5D100BF00BF083753
:102E9000BD4680BD008003400FB480B596B000AF42
:102EA00007F164037B65381D7B6D3A6E502105F098
:102EB0000DFA3B1D1846FFF7C9FF00BF5837BD4646
:102EC000BDE8804004B0704780B500AF012101200B
:102ED000FFF784FF01210220FFF780FF002100207F
:102EE000FFF77CFF0248FFF7D7FF00BFFDE700BFF9
:102EF00094F4000080B487B000AFF860B9607A60E5
:102F00004FF480737B6114E0FB681B68190CBB688D
:102F10009A1CBA600AB21A80FB6819687B689A1C0E
:102F20007A600AB21A80FB680433FB607B69013B5C
:102F30007B617B69002BE7D100BF00BF1C37BD461A
:102F40005DF8047B704780B489B000AFF860B96069
:102F50007A604FF48073FB611AE0FB68B3F90030CC
:102F60009BB2BB61BB68B3F900309BB27B61BB69AC
:102F700019047B681A1D7A607A690A431A60FB6833
:102F80000233FB60BB680233BB60FB69013BFB6142
:102F9000FB69002BE1D100BF00BF2437BD465DF8BF
:102FA000047B704780B483B000AF87ED010AD7ED92
:102FB000017AF0EEE77AB0EE670A0C37BD465DF8AD
:102FC000047B704780B489B000AFF860B9607A6064
:102FD0004FF08D437B610023FB6131E0FB699B0077
:102FE000FA681344D3ED007A9FED1B7A67EE877A77
:102FF000C7ED067AD7ED067A9FED187AF4EEC77A18
:10300000F1EE10FA01DD164BBB61D7ED067A9FEDAC
:10301000157AF4EEC77AF1EE10FA02D54FF0474375
:10302000BB61FB695B00BA681344D7ED067AFDEE1D
:10303000E77A17EE902A12B21A80FB690133FB611E
:10304000FA697B689A42C9D300BF00BF2437BD46E6
:103050005DF8047B704700BF0000804600FEFF461D
:1030600000FEFF46000000C780B487B000AFF860E4
:10307000B9607A604FF062533B6100237B6116E0D8
:103080007B695B00FA681344B3F9003007EE903AAD
:10309000F8EEE77A7B699B00BA6813449FED097AE2
:1030A00067EE877AC3ED007A7B6901337B617A69C9
:1030B0007B689A42E4D300BF00BF1C37BD465DF871
:1030C000047B70470000803890B587B000AFF8608F
:1030D000B9607A60FB68D3ED007AF0EEE77ABB68FE
:1030E000C3ED007A01237B612EE07B69DB00FA6887
:1030F000134493ED007A7B69DB00FA681344D3ED47
:10310000007A27EE277A7B69DB000433FA681344E0
:10311000D3ED006A7B69DB000433FA681344D3ED16
:10312000007A66EEA77A77EE277A7B699B00BA6809
:10313000D418B0EE670A0BF0C7F9F0EE407AC4ED90
:10314000007A7B6901337B617B685B087A699A420C
:10315000CBD300BF00BF1C37BD4690BD80B596B035
:1031600000AFF860B9607A60B64B3B628023FB61C8
:103170004FF000037B654FF000033B654FF0000309
:10318000FB644FF00003BB6400237B644FF000033B
:103190003B644FF00003FB63AB4BBB614FF000039C
:1031A0007B61002387F83B304FF000037B634FF0D7
:1031B00000033B637B681A687B681A627B68DA6885
:1031C0007B68DA627B681A697B681A637B685A6974
:1031D0007B685A637B689A697B689A637B68DA6963
:1031E0007B68DA637B685A687B685A627B689A6896
:1031F0007B689A62954A7B6D13600123FB6205E14F
:10320000FB6A9B00FA681344D3ED007A9FED907A35
:10321000F4EEC77AF1EE10FA0BDDFB6A9B00FA6858
:103220001344D3ED007A97ED157A77EE277AC7ED40
:10323000157AFB6A9B00FA681344D3ED007A9FED80
:10324000847AF4EEC77AF1EE10FA17DDFB6A07EE26
:10325000903AB8EE677A7F4BD3ED007A27EE277A63
:10326000FB6A9B00FA681344D3ED007A67EE277A75
:1032700097ED147A77EE277AC7ED147AFB6A9B00F4
:10328000FA681344D3ED007A97ED127AB4EEE77A38
:10329000F1EE10FA07D5FB6A9B00FA6813441B682D
:1032A000BB64FB6A7B64FB6A9B00FA68134493ED82
:1032B000007AFB6A9B00FA681344D3ED007A67EE4C
:1032C000277A97ED137A77EE277AC7ED137AFB6AA0
:1032D0009B00FA68134493ED007AFB6A9B00BA687E
:1032E0001344D3ED007A77EE677AB0EE670AFFF702
:1032F00059FEF0EE407AF5EEC07AF1EE10FACCBF4E
:1033000001230023DBB2002B23D0FB6A9B00FA6869
:10331000134493ED007AFB6A9B00BA681344D3ED23
:10332000007A37EE677AFB6A9B00FA681344D3EDA4
:10333000006AFB6A9B00BA681344D3ED007A76EE0C
:10334000E77A67EE277A97ED107A77EE277AC7ED5E
:10335000107AFB6A9B00FA68134493ED007AD7ED6C
:10336000127ADFED3D6A67EEA67AB4EEE77AF1EE07
:1033700010FA15DD97F83B3083F00103DBB2002B28
:103380000ED0FB6A07EE903AB8EE677A314BD3ED78
:10339000007A67EE277AC7ED0D7A012387F83B3074
:1033A000FB6A9B00FA68134493ED007AD7ED127A1A
:1033B000DFED296A67EEA67AB4EEE77AF1EE10FA4D
:1033C0000BDDFB6A07EE903AB8EE677A214BD3ED3E
:1033D000007A67EE277AC7ED0C7AFB6A9B00FA68E1
:1033E0001344D3ED007A9FED1D7A77EE877AB0EE25
:1033F000670A0BF009F8B0EE407AD7ED0F7A77EE56
:10340000877AC7ED0F7AFB6A0133FB62FB6A7F2B79
:103410007FF6F6AE124BD3ED007AB6EE007A67EE89
:10342000877A7B68C3ED027A4FF00003BB62D7ED69
:10343000157A9FED0C7A67EE877AC7ED047A01233F
:103440007B6237E0CCBC8C2B0402013C20D3FF1FF5
:103450000AD7233CE80BFD1FF304353FCCBC8C2B73
:103460008000FD1F9A99593F7B6A9B00FA681344BC
:10347000D3ED007A97ED0A7A77EE277AC7ED0A7ACC
:1034800097ED0A7AD7ED047AB4EEE77AF1EE10FA06
:103490000DDB7B6A07EE903AB8EE677A374BD3EDD7
:1034A000007A67EE277A7B68C3ED027A05E07B6AD3
:1034B00001337B627B6A7F2BD6D9D7ED157A9FEDDE
:1034C000307AF4EEC77AF1EE10FA06DDD7ED146A21
:1034D00097ED157AC6EE877A01E0DFED2A7A7B68F0
:1034E000C3ED007A97ED100A0AF0EEFFF0EE406AA5
:1034F000D7ED157A9FED247A37EE877AC6EE877A74
:103500007B68C3ED077A97ED0C7AD7ED0D7A77EEED
:10351000677A7B68C3ED017A7B68FA6C1A6197ED74
:10352000137ADFED1A6AC7EE267A9FED177A77EEE7
:10353000877AB0EE670A0AF097FFF0EE407AB2EEB3
:10354000047A67EE877A7B68C3ED037A7B6C07EEBB
:10355000903AB8EE677A094BD3ED007A67EE277A96
:103560007B68C3ED057A7B68BA6C9A617B683A6CBC
:10357000DA6100BF5837BD4680BD00BFE80BFD1FB4
:10358000BD37863500000000CCBC8C2B000000430A
:10359000B0B588B000AF87ED040B87ED021B87ED57
:1035A000002BD7E90223D7E9040104F0A7F802466B
:1035B0000B4614461D46D7E90223D7E9000104F063
:1035C0009DF802460B462046294604F079FB024648
:1035D0000B46C7E906234FF000024FF00003D7E97E
:1035E000060104F0B5FC0346002B04D04FF00002A6
:1035F0004FF000030FE04FF000020B4BD7E906013C
:1036000004F0C4FC0346002B03D04FF00002064B2D
:1036100001E0D7E9062343EC172BB0EE470AF0EEA2
:10362000670A2037BD46B0BD0000F03F80B489B0C6
:1036300000AF87ED010A3E4B1B683E4A9B001344D6
:103640007A681A603A4B1B68591C3B4BA3FB012359
:103650001A0913469B0013449B00CA1A344B1A6084
:10366000364B1B68132B04D8344B1B680133334A89
:103670001360324B1B68132B01D8002351E04FF02D
:103680000003FB610023BB6100237B6121E0284B29
:103690001B681A467B69D31A013B3B613B69002BCF
:1036A00002DA3B6914333B617B69012B0ED9214A55
:1036B0003B699B001344D3ED007A97ED077A77EED0
:1036C000277AC7ED077ABB690133BB617B69013398
:1036D0007B617B69132BDAD9BB69002B09D0BB69ED
:1036E00007EE903AB8EE677AD7ED076AC6EE877AAA
:1036F00001E0DFED137AC7ED037AD7ED037AB2EE7E
:10370000047A67EE877AC7ED027A97ED017AD7EDF2
:10371000027AB4EEE77AF1EE10FACCBF012300236F
:10372000DBB218462437BD465DF8047B704700BF06
:10373000480CFD1FF80BFD1FCDCCCCCC4C0CFD1F55
:103740000000000080B485B000AF87ED010AC7ED2E
:10375000000A2C4B1B7883F00103DBB2002B0ED048
:10376000294B1B78002B0AD0284A7B681360254B15
:1037700001221A70264B00221A6000233BE0234BE3
:10378000D3ED007A9FED237A67EE877AC7ED037A4F
:1037900097ED017AD7ED037AB4EEE77AF1EE10FAFD
:1037A00008D4D7ED007AB7EE007AF4EEC77AF1EEDE
:1037B00010FA0AD5164B1B680133154A1360144BD7
:1037C0001B68632B16D9012315E0114B00221A60E8
:1037D0000E4BD3ED007A9FED107A27EE877AD7ED66
:1037E000017ADFED0E6A67EEA67A77EE277A074B4D
:1037F000C3ED007A002318461437BD465DF8047BFC
:10380000704700BF600CFD1F500CFD1F5C0CFD1FBE
:10381000580CFD1F9A99993E6666663FCDCCCC3D0B
:103820002DE9B0438AB002AF122218214FF4E130E3
:10383000FEF7B9FE00210320FFF7D0FA9B4800F005
:1038400084FF9B4800F081FF4FF48062002199487B
:1038500004F078FD4FF480620021974804F072FD77
:103860004FF48071954801F0BBFB0346FB714FF4A8
:103870008071934801F01CFC924A93499348FFF7EA
:103880000BFB934B1B68184604F098F802460B4656
:103890004FF4807100918F48FFF7FEFA8E4B1B6842
:1038A000184604F08BF804460D468C4BD3ED007A95
:1038B0009FED8B7A67EE877A17EE900A04F07EF818
:1038C00002460B46CDE9002322462B468548FFF7EA
:1038D000E3FA80218448FFF7DFFA7D4BD3ED007ACD
:1038E0009FED827AC7EE276A16EE900A04F066F81A
:1038F00002460B46A0217E48FFF7CEFAFEF770FE87
:103900007C4B00221A7000BF6A49684800F02CFF07
:10391000034683F00103DBB2002BF5D10121022025
:10392000FFF75CFA01210320FFF758FA724A734946
:103930006048FFF7DFFA0023FB610CE0704AFB6987
:103940009B0013441A686F49FB699B000B441A6083
:10395000FB690133FB61FB697F2BEFD90023BB615E
:1039600015E0664ABB6932F9133007EE903AB8EEBB
:10397000E77ABB698033DFED646AC7EE267A614A75
:103980009B001344C3ED007ABB690133BB61BB6983
:103990007F2BE6D900237B6115E07B698033574A92
:1039A00032F9133007EE903AB8EEE77ADFED566A57
:1039B000C7EE267A524A7B699B001344C3ED007A16
:1039C0007B6901337B617B697F2BE6D900233B61F7
:1039D00016E04C4A3B699B00134493ED007A384A49
:1039E0003B699B001344D3ED007A67EE277A474A80
:1039F0003B699B001344C3ED007A3B6901333B6193
:103A00003B69FF2BE5D90023414A40492B4801F08F
:103A100096F94FF480723F493D48FFF755FB3E4A07
:103A20003E493C48FFF79AFB3C4A3A4B1046194640
:103A30004FF400731A4604F061FD2E4B1B7883F09F
:103A40000103DBB2002B6FD0334BD3ED047AB0EE21
:103A5000670AFFF7EBFD03461A46264B1A704FF430
:103A6000007200212E4804F06DFC4FF4007200211A
:103A70002C4804F067FC104A2A492948FFF763FAEA
:103A800000BF0D490A4800F009FF034683F0010317
:103A9000DBB2002BF5D100210220FFF79FF90021B6
:103AA0000320FFF79BF900F075BD00BF640CFD1FFC
:103AB0007018FD1F7C24FD1F7C28FD1F80D2FF1F76
:103AC000AC00FD1FA4F40000B0F40000BCF4000042
:103AD0008000FD1FC4F40000E80BFD1FEC0BFD1F70
:103AE00000007A44D8F40000F4F400000000A0467E
:103AF0000CF50000500CFD1F7C2EFD1F7C2CFD1FC3
:103B00007C34FD1F7C42FD1F000000477C3EFD1FF2
:103B10007C36FD1F80CEFF1F98D2FF1F80D0FF1F75
:103B20007C30FD1F7C32FD1F444B1B78002B31D0B5
:103B3000434B1A68434B1B689A422BDA414B1B6874
:103B40005A1E3F4B1B689A421FD13F4B1B693F4A8D
:103B500013613D4B5B683D4A53603B4B9B683B4A5E
:103B60009360394BDB68394AD360374B1B68374A5F
:103B70001360354B5B69354A5361334B9B69334A5C
:103B80009361314BDB69314AD3612D4B1B680133A3
:103B90002B4A1360294B1B78002B69D0284B1A68DD
:103BA000284B1B689A4263DB274BD3ED047A264BE4
:103BB00093ED007AF0EE470AB0EE670AFFF7C2FD18
:103BC0000346002B54D01D4B00221A70204B0022BC
:103BD0001A70204B00221A60194B00221A601E4BEB
:103BE00000221A604FF4007200211C4804F0AAFB66
:103BF0004FF4007200211A4804F0A4FB4FF4007245
:103C00000021184804F09EFB174A16491448FFF794
:103C10009AF900BF1449154800F040FE034683F0AE
:103C20000103DBB2002BF5D100210220FFF7D6F80B
:103C300000210320FFF7D2F800F0ACBC500CFD1FB0
:103C4000540CFD1FA800FD1F98D2FF1FD8D2FF1FE4
:103C5000600CFD1F580CFD1F7CC6FF1F7C34FD1F30
:103C60007C30FD1F7C32FD1F7C28FD1F7018FD1F5E
:103C7000CF4B4FF000021A60CE4B93ED007ACE4B43
:103C8000D3ED007A77EE677AB0EE670AFFF78AF92C
:103C9000B0EE407AC94B1B8807EE903AF8EEE77A0F
:103CA000B4EEE77AF1EE10FA4CBF01230023DBB249
:103CB000002B4DD0C24B1B88184603F06DFE044606
:103CC0000D46BC4B93ED007ABB4BD3ED007A77EEFB
:103CD000677AB0EE670AFFF765F910EE103A1846FA
:103CE00003F06CFE80468946B44B1B88184603F0EF
:103CF00043FE02460B4643EC122B9FEDAB1B49ECF7
:103D0000108BFFF745FC53EC102B4FF00000AD4932
:103D100003F0F4FC02460B462046294603F0A6FEBB
:103D200002460B4614461D46A14B1B68184603F07D
:103D300045FE02460B462046294603F0E1FC0246BA
:103D40000B461046194604F02BF90346984A1360B7
:103D5000984B93ED037A984BD3ED037A77EE677A1D
:103D6000B0EE670AFFF71EF9B0EE407A964B1B885B
:103D700007EE903AF8EEE77AB4EEE77AF1EE10FA51
:103D80004CBF01230023DBB2002B4DD08F4B1B888F
:103D9000184603F001FE04460D46864B93ED037A68
:103DA000854BD3ED037A77EE677AB0EE670AFFF7BB
:103DB000F9F810EE103A184603F000FE80468946E6
:103DC000814B1B88184603F0D7FD02460B4643EC97
:103DD000122B9FED751B49EC108BFFF7D9FB53ECB1
:103DE000102B4FF00000774903F088FC02460B4689
:103DF0002046294603F03AFE02460B4614461D466D
:103E00006B4B1B68184603F0D9FD02460B46204653
:103E1000294603F075FC02460B461046194604F08D
:103E2000BFF80346624A1360624B93ED047A624B1B
:103E3000D3ED047A77EE677AB0EE670AFFF7B2F84F
:103E4000B0EE407A624B1B8807EE903AF8EEE77AC4
:103E5000B4EEE77AF1EE10FA4CBF01230023DBB297
:103E6000002B4DD05B4B1B88184603F095FD044694
:103E70000D46504B93ED047A4F4BD3ED047A77EE19
:103E8000677AB0EE670AFFF78DF810EE103A184621
:103E900003F094FD804689464D4B1B88184603F07D
:103EA0006BFD02460B4643EC122B9FED3F1B49EC8A
:103EB000108BFFF76DFB53EC102B4FF000004149C6
:103EC00003F01CFC02460B462046294603F0CEFDBB
:103ED00002460B4614461D46354B1B68184603F038
:103EE0006DFD02460B462046294603F009FC0246BA
:103EF0000B461046194604F053F803462C4A13604B
:103F00002C4B93ED057A2C4BD3ED057A77EE677A3F
:103F1000B0EE670AFFF746F8B0EE407A2E4B1B88EA
:103F200007EE903AF8EEE77AB4EEE77AF1EE10FA9F
:103F30004CBF01230023DBB2002B6BD0274B1B8827
:103F4000184603F029FD04460D461A4B93ED057AF9
:103F5000194BD3ED057A77EE677AB0EE670AFFF773
:103F600021F810EE103A184603F028FD80468946E5
:103F7000194B1B88184603F0FFFC02460B4643EC26
:103F8000122B9FED091B49EC108BFFF701FB53EC43
:103F9000102B4FF000000B4903F0B0FB02460B461C
:103FA000204629461CE000BF000000000000000081
:103FB000F00BFD1F98D2FF1FD8D2FF1F9800FD1FE6
:103FC0008400FD1F0000F03F9A00FD1F8600FD1FCA
:103FD0009C00FD1F8800FD1F9E00FD1F8A00FD1F25
:103FE00003F044FD02460B4614461D46C84B1B68B1
:103FF000184603F0E3FC02460B462046294603F030
:104000007FFB02460B461046194603F0C9FF0346E4
:10401000BF4A1360BF4B93ED017ABF4BD3ED017ADA
:1040200077EE677AB0EE670AFEF7BCFFB0EE407A33
:10403000BA4B1B8807EE903AF8EEE77AB4EEE77ACF
:10404000F1EE10FA4CBF01230023DBB2002B4DD060
:10405000B34B1B88184603F09FFC04460D46AD4B3E
:1040600093ED017AAC4BD3ED017A77EE677AB0EE3F
:10407000670AFEF797FF10EE103A184603F09EFC11
:1040800080468946A54B1B88184603F075FC0246FE
:104090000B4643EC122B9FED9C1B49EC108BFFF75A
:1040A00077FA53EC102B4FF000009E4903F026FBEB
:1040B00002460B462046294603F0D8FC02460B4632
:1040C00014461D46924B1B68184603F077FC0246C7
:1040D0000B462046294603F013FB02460B461046CA
:1040E000194603F05DFF0346894A1360894B93ED3F
:1040F000027A894BD3ED027A77EE677AB0EE670ADF
:10410000FEF750FFB0EE407A874B1B8807EE903ADF
:10411000F8EEE77AB4EEE77AF1EE10FA4CBF01233D
:104120000023DBB2002B4DD0804B1B88184603F0D8
:1041300033FC04460D46774B93ED027A764BD3ED74
:10414000027A77EE677AB0EE670AFEF72BFF10EE81
:10415000103A184603F032FC80468946724B1B88A1
:10416000184603F009FC02460B4643EC122B9FED68
:10417000661B49EC108BFFF70BFA53EC102B4FF03A
:104180000000684903F0BAFA02460B462046294669
:1041900003F06CFC02460B4614461D465C4B1B6844
:1041A000184603F00BFC02460B462046294603F056
:1041B000A7FA02460B461046194603F0F1FE0346E5
:1041C000534A1360534BD3ED077AB0EE670AFEF7FC
:1041D000E9FEB0EE407A564B1B8807EE903AF8EEB7
:1041E000E77AB4EEE77AF1EE10FACCBF01230023B0
:1041F000DBB2002B0CD04F4B1B8801334E4A128888
:1042000093FBF2F101FB02F29B1A9AB2494B1A801E
:10421000484B1B88002B48D1484B1B88184603F09D
:10422000BBFB04460D463B4BD3ED077AB0EE670A65
:10423000FEF7B8FE10EE103A184603F0BFFB8046BA
:1042400089463B4B1B88184603F096FB02460B46FB
:1042500043EC122B9FED2C1B49EC108BFFF798F9C8
:1042600053EC102B4FF000002E4903F047FA0246A2
:104270000B462046294603F0F9FB02460B4614463E
:104280001D46234B1B68184603F098FB02460B465D
:104290002046294603F034FA02460B4610461946DA
:1042A00003F07EFE03461A4A1360194BD3ED006AF1
:1042B000234B1B881A46234B1B881344224A12881F
:1042C0001344224A128813441C4A12881344144A85
:1042D00012881344154A1288134407EE903AB8EE38
:1042E000E77AC6EE877A0A4BC3ED007A084B93ED66
:1042F000007A174BD3ED007AB4EEE77AF1EE10FABC
:1043000040F3C48026E000BF000000000000000071
:10431000F00BFD1F98D2FF1FD8D2FF1FA200FD1F78
:104320008E00FD1F0000F03FA400FD1F9000FD1F48
:10433000A000FD1FF40BFD1F7C00FD1F8C00FD1F66
:104340008400FD1F8600FD1F8800FD1F8A00FD1FE1
:104350009400FD1F904B1A68904B1B689A4240F0E6
:1043600095808F4B1B689B028E4A13444FF400725A
:1043700019468D48FEF726FE8C4B93ED047A8C4B44
:10438000D3ED047A37EE277AF0EE006AC7EE267A8C
:10439000874BC3ED047A854B93ED037A844BD3EDC1
:1043A000037A37EE277AF0EE006AC7EE267A804B62
:1043B000C3ED037A7D4B93ED017A7D4BD3ED017A0A
:1043C00037EE277AF0EE006AC7EE267A784BC3ED17
:1043D000017A764B93ED027A754BD3ED027A37EE84
:1043E000277AF0EE006AC7EE267A714BC3ED027AA7
:1043F0006E4B93ED007A6E4BD3ED007A37EE277A51
:10440000F0EE006AC7EE267A694BC3ED007A674B7F
:1044100093ED057A664BD3ED057A37EE277AF0EE09
:10442000006AC7EE267A624BC3ED057A5F4B93EDC7
:10443000067A5F4BD3ED067A37EE277AF0EE006A04
:10444000C7EE267A5A4BC3ED067A584B93ED077A9E
:10445000574BD3ED077A37EE277AF0EE006AC7EEB6
:10446000267A534BC3ED077A4D4B1B6801334C4AF8
:1044700013604B4B1B689F2B08D9494B00221A60D5
:104480004C4B00221A604C4B01221A704A4B1B788D
:10449000002B5BD0474B1B689B02424A13444FF4EE
:1044A000007246491846FEF7DFFD0123444A43499E
:1044B000444800F044FC0023FB6034E0404AFB68C1
:1044C0009B0013441B68BB60D7ED027AB7EE007AFD
:1044D000F4EEC77AF1EE10FA02DD4FF07E53BB60C6
:1044E000D7ED027ABFEE007AF4EEC77AF1EE10FA59
:1044F00001D5354BBB60D7ED027A9FED347A67EE7C
:10450000877AFDEEE77A17EE903ABB803049FB6878
:10451000BA8821F813202F49FB68BA8821F81320A4
:10452000FB680133FB60FB68FF2BC7D9214B1B687D
:104530000133204A13601F4B1B689F2B12D91D4B60
:1045400000221A601C4B00221A700BE04FF400721C
:1045500000211F4803F0F6FE4FF4007200211D48B1
:1045600003F0F0FE1C4A1B491948FEF7ECFC00BFA3
:1045700019491A4800F092F9034683F00103DBB2AF
:10458000002BF5D100210220FEF728FC002103209A
:10459000FEF724FCFFF7B7B9540CFD1FA800FD1F60
:1045A0007CC6FF1F7C46FD1F7C36FD1F98D2FF1F77
:1045B000D8D2FF1F18D3FF1F1CD3FF1F80C6FF1FB9
:1045C0007C3EFD1F80D2FF1F000080BF00FEFF4623
:1045D0007C30FD1F7C32FD1F7C28FD1F7018FD1FE5
:1045E00080B582B000AF074800F009F978607B68B9
:1045F000002B01D1FEF768FC7B6818460837BD46E2
:1046000080BD00BF7018FD1F80B582B000AF0748A5
:1046100000F094F978607B68002B01D1FEF754FC20
:104620007B6818460837BD4680BD00BF640CFD1F7F
:1046300080B500AF0D4B93ED007ADFED0D6AC7EE4C
:10464000267A0C4BC3ED007A0A4B93ED007AF7EE15
:10465000006AC6EE877A084BC3ED007A074800F07F
:1046600059F8074800F056F800BF80BD8000FD1FD4
:1046700000008043E80BFD1FEC0BFD1F640CFD1FC9
:104680007018FD1F80B500AFFFF7D2FF80BD00009E
:1046900080B483B000AF0346FB7197F90730002B5D
:1046A0000BDBFB7903F01F02074997F907305B0921
:1046B000012000FA02F241F8232000BF0C37BD466A
:1046C0005DF8047B704700BF00E100E080B483B078
:1046D00000AF0346FB7197F90730002B12DBFB7923
:1046E00003F01F020A4997F907305B09012000FA1D
:1046F00002F2203341F82320BFF34F8F00BFBFF3F6
:104700006F8F00BF00BF0C37BD465DF8047B70475C
:1047100000E100E080B483B000AF78607A687B6825
:10472000C3F8002C7A687B68C3F8042C7B680022ED
:1047300083F8082C7B68012283F8092C7B681846D3
:104740000C37BD465DF8047B704780B582B000AF82
:1047500078607B684FF440620021184603F0F2FD58
:1047600000BF0837BD4680BD80B584B000AF78601B
:1047700039607020FFF7AAFF7B68D3F8002C7B68B4
:10478000D3F8043C9A420CD17B6893F8083C83F040
:104790000103DBB2002B04D07020FFF779FF002368
:1047A00029E07020FFF774FF4FF48073FB600EE088
:1047B0007B68D3F8002C111D7B68C3F8001C3B6894
:1047C000191D396012681A60FB68013BFB60FB68C9
:1047D000002BEDD17B68D3F8002C7B6803F5406398
:1047E0009A4203D37A687B68C3F8002C7B68002266
:1047F00083F8082C012318461037BD4680BD80B5CC
:1048000082B000AF78607B6893F8093C83F00103C5
:10481000DBB2002B2DD07B68D3F8003C03F580621F
:104820007B68C3F8002C7B68D3F8002C7B6803F509
:1048300040639A4203D37A687B68C3F8002C7B6894
:10484000002283F8082C7B68D3F8002C7B68D3F80F
:10485000043C9A4209D17B6893F8083C83F0010339
:10486000DBB2002B01D0FEF72FFB7B68D3F8003CB6
:1048700010E07B68D3F8002C7B6803F540639A4214
:1048800001D3FEF721FB7B68002283F8092C7B68AB
:10489000D3F8003C18460837BD4680BD80B584B0CB
:1048A00000AF786039607020FFF710FF7B68D3F8A5
:1048B000042C7B68D3F8003C9A4209D17B6893F8BA
:1048C000083C002B04D07020FFF7E2FE002331E00B
:1048D0004FF48073FB600EE03A68131D3B607B6809
:1048E000D3F8043C181D7968C1F8040C12681A60EA
:1048F000FB68013BFB60FB68002BEDD17B68D3F8C4
:10490000042C7B6803F540639A4203D37A687B6882
:10491000C3F8042C7B68D3F8042C7B68D3F8003CE4
:104920009A4203D17B68012283F8082C7020FFF79C
:10493000AFFE012318461037BD4680BD80B582B05A
:1049400000AF78607B6893F8093C83F00103DBB229
:10495000002B2AD07B68D3F8043C03F580627B6887
:10496000C3F8042C7B68D3F8042C7B6803F5406300
:104970009A4203D37A687B68C3F8042C7B68D3F827
:10498000042C7B68D3F8003C9A4203D17B68012257
:1049900083F8082C7B6893F8083C002B01D0FEF7C5
:1049A00093FA7B68D3F8043C10E07B68D3F8042CBE
:1049B0007B6803F540639A4201D3FEF785FA7B6872
:1049C000002283F8092C7B68D3F8043C184608378A
:1049D000BD4680BD80B495B000AFF860B9607A6024
:1049E000FB685B69BB64BB687B64BB683B64FB685A
:1049F0001B88013BFB643B6C1B68FB633B6C043313
:104A00001B68BB637B6C1B687B637B6C04331B681C
:104A10003B63BB6C1A1DBA641B68FB62BB6C1A1D3E
:104A2000BA641B68BB6297ED0F7AD7ED0D7A77EE0B
:104A3000277AC7ED097A97ED0E7AD7ED0C7A77EEE3
:104A4000277AC7ED087A97ED097AD7ED087A77EEDD
:104A5000277A7B681A1D7A60B6EE007A67EE877A4D
:104A6000C3ED007A97ED097AD7ED087A77EE677A89
:104A70007B681A1D7A60B6EE007A67EE877AC3ED1E
:104A8000007AFB6CDB00BA6813443B647B6C083330
:104A90007B643B6C04331B68BB633B6C1B68FB6330
:104AA0007B6C1B687B637B6C04331B683B63BB6C58
:104AB0001A1DBA641B68FB62BB6C1A1DBA641B68C2
:104AC000BB6297ED0F7AD7ED0D7A77EE677AC7ED77
:104AD000097A97ED0E7AD7ED0C7A77EE277AC7ED43
:104AE000087A97ED0B7AD7ED097A67EE277AC7ED4A
:104AF000077A97ED0A7AD7ED097A67EE277AC7ED3C
:104B0000067A97ED0B7AD7ED087A67EE277AC7ED2C
:104B1000057A97ED0A7AD7ED087A67EE277AC7ED1E
:104B2000047A97ED0D7AD7ED0F7A37EE277AD7ED25
:104B3000077A37EE277AD7ED047A77EE277A7B6803
:104B40001A1D7A60B6EE007A67EE877AC3ED007AB6
:104B500097ED0C7AD7ED0E7A37EE677AD7ED067AB5
:104B600037EE277AD7ED057A77EE677A7B681A1DDC
:104B70007A60B6EE007A67EE877AC3ED007A7B6CD6
:104B800008337B643B6C083B3B64FB6C013BFB6480
:104B9000FB6C002B3FF77DAF00BF00BF5437BD4615
:104BA0005DF8047B704780B495B000AFF860B960E1
:104BB0007A60FB685B69BB64BB687B64BB683B6411
:104BC000FB681B88013BFB647B6C1B68FB637B6C95
:104BD00004331B68BB63BB6C0833BB6497ED0F7A6F
:104BE000D7ED0E7A77EE277A7B681A1D7A60B6EEDB
:104BF000007A67EE877AC3ED007A97ED0F7AD7EDEA
:104C00000E7A77EE677A7B681A1D7A60B6EE007AC4
:104C100067EE877AC3ED007AFB6CDB00BA68134459
:104C20003B647B6C08337B647EE03B6C04331B6825
:104C30007B633B6C1B683B637B6C1B68FB637B6C1F
:104C400004331B68BB63BB6C1A1DBA641B68FB6230
:104C5000BB6C1A1DBA641B68BB6297ED0F7AD7ED67
:104C60000C7A77EE677AC7ED097A97ED0E7AD7ED71
:104C70000D7A77EE277AC7ED087A97ED0B7AD7EDA4
:104C8000097A67EE277AC7ED077A97ED0A7AD7EDAA
:104C9000087A67EE277AC7ED067A97ED0A7AD7ED9C
:104CA000097A67EE277AC7ED057A97ED0B7AD7ED8B
:104CB000087A67EE277AC7ED047A97ED0F7AD7ED79
:104CC0000C7A37EE277AD7ED077A37EE677AD7ED89
:104CD000067A77EE677A7B681A1D7A60B6EE007AFC
:104CE00067EE877AC3ED007A97ED0E7AD7ED0D7AED
:104CF00037EE677AD7ED057A37EE277AD7ED047A63
:104D000077EE677A7B681A1D7A60B6EE007A67EEF6
:104D1000877AC3ED007A7B6C08337B643B6C083B7D
:104D20003B64FB6C013BFB64FB6C002B3FF77DAFEE
:104D300000BF00BF5437BD465DF8047B704780B5A7
:104D400086B000AFF860B9607A60FB70FB687B6189
:104D5000FB78002B0BD07A68B968F868FFF723FF5F
:104D6000FA7801237968786901F00EFA0AE0FA7896
:104D70000123B968786901F007FA7A68B968F868B8
:104D8000FFF728FE00BF1837BD4680BD80B584B050
:104D900000AF78607B68002B02D14FF0FF3313E047
:104DA0007B68184601F0A0FB0346FB7397F90F30B0
:104DB000002B02D097F90F3006E07B6820221A8280
:104DC0007B68034A5A61002318461037BD4680BDF0
:104DD00010AA010080B584B000AF78607B68002B1A
:104DE00002D14FF0FF3313E07B68184601F05AFB05
:104DF0000346FB7397F90F30002B02D097F90F3061
:104E000006E07B6840221A827B68034A5A610023CD
:104E100018461037BD4680BD90AA010080B584B009
:104E200000AF78607B68002B02D14FF0FF3313E0B6
:104E30007B68184601F014FB0346FB7397F90F30AB
:104E4000002B02D097F90F3006E07B6880221A828F
:104E50007B68034A5A61002318461037BD4680BD5F
:104E600090AB010080B584B000AF78607B68002B08
:104E700002D14FF0FF3314E07B68184601F0CEFA00
:104E80000346FB7397F90F30002B02D097F90F30D0
:104E900007E07B684FF480721A827B68034A5A618C
:104EA000002318461037BD4680BD00BF90AD0100FD
:104EB00080B584B000AF78607B68002B02D14FF0E2
:104EC000FF3314E07B68184601F084FA0346FB7355
:104ED00097F90F30002B02D097F90F3007E07B686D
:104EE0004FF400721A827B68034A5A610023184605
:104EF0001037BD4680BD00BF90B1010080B584B0C1
:104F000000AF78607B68002B02D14FF0FF3314E0D4
:104F10007B68184601F03AFA0346FB7397F90F30A5
:104F2000002B02D097F90F3007E07B684FF48062C6
:104F30001A827B68034A5A61002318461037BD461F
:104F400080BD00BF90B9010080B584B000AF78602B
:104F50007B68002B02D14FF0FF3314E07B681846CA
:104F600001F0F0F90346FB7397F90F30002B02D0E4
:104F700097F90F3007E07B684FF400621A827B6874
:104F8000034A5A61002318461037BD4680BD00BF52
:104F900090C9010080B584B000AF78607B68002BB9
:104FA00002D14FF0FF3314E07B68184601F0A6F9F8
:104FB0000346FB7397F90F30002B02D097F90F309F
:104FC00007E07B684FF480521A827B68034A5A617B
:104FD000002318461037BD4680BD00BF90E9010090
:104FE00080B584B000AF78600B467B807B88B3F5DA
:104FF000805F23D0B3F5805F50DCB3F5006F23D022
:10500000B3F5006F4ADCB3F5806F23D0B3F5806F42
:1050100044DCB3F5007F23D0B3F5007F3EDCB3F56D
:10502000807F23D0B3F5807F38DC802B24D0802B89
:1050300034DC202B2CD0402B24D02FE07868FFF7D5
:10504000A9FF0346FB732CE07868FFF77DFF03465A
:10505000FB7326E07868FFF751FF0346FB7320E0FF
:105060007868FFF725FF0346FB731AE07868FFF7BF
:10507000F9FE0346FB7314E07868FFF7CFFE0346A2
:10508000FB730EE07868FFF7A5FE0346FB7308E0AC
:105090007868FFF77BFE0346FB7302E04FF0FF33B7
:1050A00001E097F90F3018461037BD4680BD00006B
:1050B00080B586B000AF786039603B6807EE903A03
:1050C000B8EE677AF0EE006AC6EE877AC7ED047A2A
:1050D00000237B6125E07B6907EE903AF8EE677A62
:1050E0009FED147A27EE877AD7ED047A67EE277A58
:1050F000B0EE670A09F00AFAF0EE407A9FED0E7AF8
:1051000067EE877A9FED0D7A77EE677AC7ED037ABF
:105110007B699B007A681344FA681A607B690133E3
:105120007B617A693B689A42D5D300BF00BF1837CC
:10513000BD4680BDDB0F49401F85EB3E713D0A3FF8
:1051400080B5A0B000AF786039607B681B88BB6613
:10515000BB6E9B003A6813447B677B685B683B6768
:105160003B687B667B6F3B66BB6E5B08BB66BB6E5A
:105170009B003A681344FB67BB6E9B007A6F134435
:10518000BB67BB6E9B08FB66B6E13B681B68BB63F5
:105190003B685B68FB633B689B683B643B68DB6820
:1051A0007B647B6F1B68BB627B6F5B68FB627B6FA2
:1051B0009B683B637B6FDB687B63FB6F1B68BB613A
:1051C000FB6F5B68FB61FB6F9B683B62FB6FDB689F
:1051D0007B62BB6F1B68BB60BB6F5B68FB60BB6FB8
:1051E0009B683B61BB6FDB687B6197ED0E7AD7ED07
:1051F0000A7A3B681A1D3A6077EE277AC3ED007A87
:1052000097ED0F7AD7ED0B7A3B681A1D3A6077EE6F
:10521000277AC3ED007A97ED107AD7ED0C7A3B68C8
:105220001A1D3A6077EE277AC3ED007A97ED117A6E
:10523000D7ED0D7A3B681A1D3A6077EE277AC3EDF9
:10524000007A97ED0E7AD7ED0A7A77EE677AC7ED96
:105250000A7A97ED0F7AD7ED0B7A77EE677AC7ED7A
:105260000B7A97ED107AD7ED0C7A77EE677AC7ED67
:105270000C7A97ED117AD7ED0D7A77EE677AC7ED54
:105280000D7A97ED067AD7ED027AFB6F1A1DFA6751
:1052900077EE277AC3ED007A97ED077AD7ED037A98
:1052A000FB6F1A1DFA6777EE277AC3ED007A97ED48
:1052B000087AD7ED047AFB6F1A1DFA6777EE277A22
:1052C000C3ED007A97ED097AD7ED057AFB6F1A1DC9
:1052D000FA6777EE277AC3ED007A97ED027AD7ED79
:1052E000067A77EE677AC7ED027A97ED037AD7ED03
:1052F000077A77EE677AC7ED037A97ED047AD7EDF0
:10530000087A77EE677AC7ED047A97ED057AD7EDDC
:10531000097A77EE677AC7ED057A3B6F1A1D3A670F
:105320001B68FB653B6F1A1D3A671B68BB65D7EDB1
:105330000A7A97ED177A67EE277AC7ED157AD7EDD7
:105340000B7A97ED167A67EE277AC7ED147AD7EDC8
:105350000B7A97ED177A67EE277AC7ED137AD7EDB8
:105360000A7A97ED167A67EE277AC7ED127A7B6F85
:105370001A1D7A6797ED157AD7ED147A77EE277AAA
:10538000C3ED007A7B6F1A1D7A6797ED137AD7ED1C
:10539000127A77EE677AC3ED007AD7ED027A97ED4D
:1053A000167A67EE277AC7ED157AD7ED037A97ED6F
:1053B000177A67EE277AC7ED147AD7ED037A97ED5F
:1053C000167A67EE277AC7ED137AD7ED027A97ED52
:1053D000177A67EE277AC7ED127ABB6F1A1DBA6784
:1053E00097ED157AD7ED147A77EE677AC3ED007AE8
:1053F000BB6F1A1DBA6797ED137AD7ED127A77EE65
:10540000277AC3ED007A3B6F1A1D3A671B68FB656C
:105410003B6F1A1D3A671B68BB65D7ED0C7A97ED99
:10542000177A67EE277AC7ED157AD7ED0D7A97EDE3
:10543000167A67EE277AC7ED147AD7ED0D7A97EDD5
:10544000177A67EE277AC7ED137AD7ED0C7A97EDC6
:10545000167A67EE277AC7ED127A7B6F1A1D7A6784
:1054600097ED157AD7ED147A77EE277AC3ED007AA7
:105470007B6F1A1D7A6797ED137AD7ED127A77EE64
:10548000677AC3ED007AD7ED047A97ED167A67EE66
:10549000277AC7ED157AD7ED057A97ED177A67EE7B
:1054A000277AC7ED147AD7ED057A97ED167A67EE6D
:1054B000277AC7ED137AD7ED047A97ED177A67EE5E
:1054C000277AC7ED127ABB6F1A1DBA6797ED157A66
:1054D000D7ED147A77EE677AC3ED007ABB6F1A1DA9
:1054E000BA6797ED137AD7ED127A77EE277AC3ED84
:1054F000007AFB6E013BFB66FB6E002B7FF445AE32
:10550000BB6E99B27B685A680223786E01F068F826
:10551000BB6E99B27B685A680223386E01F060F85E
:1055200000BF8037BD4680BD80B5ACB000AF7860AD
:1055300039607B681B885B089BB2C7F88030D7F85E
:1055400080309B003A681344C7F89030D7F8803019
:105550009B00D7F890201344C7F88C30D7F88030E0
:105560009B00D7F88C201344C7F888303B68FB6752
:10557000D7F89030BB67D7F88C307B67D7F8883086
:105580003B67D7F89030043BC7F8AC30D7F88C3085
:10559000043BC7F8A830D7F88830043BC7F8A430DC
:1055A000D7F880309B00D7F8A4201344C7F8A03068
:1055B0007B685B68C7F89430D7F89430C7F89830A8
:1055C000D7F89830C7F89C30D7F880305B08C7F818
:1055D00080300223FB660423BB6606237B663B68A0
:1055E00093ED007AD7F88C30D3ED007A77EE277AF6
:1055F000C7ED187A3B6893ED007AD7F88C30D3ED7D
:10560000007A77EE677AC7ED177A3B68043393ED3B
:10561000007AD7F88C300433D3ED007A77EE277A0E
:10562000C7ED167A3B68043393ED007AD7F88C30D7
:105630000433D3ED007A77EE677AC7ED157AD7F8A1
:105640009030043393ED007AD7ED177A37EE277A4E
:10565000D7F888300433D3ED007A77EE677AC7ED58
:105660000B7AD7F89030D3ED007A97ED157A37EEB4
:10567000677AD7F88830D3ED007A77EE277AC7EDCE
:105680000C7AD7F89030D3ED007A97ED187A37EE90
:10569000677AD7F88830D3ED007A77EE677AC7ED6E
:1056A000077AD7F890300433D3ED007A97ED167A65
:1056B00037EE677AD7F888300433D3ED007A77EE87
:1056C000677AC7ED087AD7F890300433D3ED007AC3
:1056D00097ED177A37EE677AD7F888300433D3ED31
:1056E000007A77EE277AC7ED037AD7F8903093EDFA
:1056F000007AD7ED157A37EE277AD7F88830D3EDD0
:10570000007A77EE677AC7ED047AD7F8903093ED98
:10571000007AD7ED187A37EE277AD7F88830D3EDAC
:10572000007A3B681A1D3A6077EE277AC3ED007A5B
:10573000D7F89030043393ED007AD7ED167A37EE30
:10574000277AD7F888300433D3ED007A3B681A1DE6
:105750003A6077EE277AC3ED007AD7F890301A1DB9
:10576000C7F89020FA6A1A60D7F890301A1DC7F867
:1057700090203A6B1A60D7F88C301A1DC7F88C202D
:10578000FA691A60D7F88C301A1DC7F88C203A6A6B
:105790001A60D7F888301A1DC7F88820FA681A608E
:1057A000D7F888301A1DC7F888203A691A60FB6E4E
:1057B0009B00D7F89C201344C7F89C30BB6E9B001D
:1057C000D7F898201344C7F898307B6E9B00D7F821
:1057D00094201344C7F89430D7F88030023B5B081C
:1057E000C7F884301CE33B6893ED007AD7F88C301F
:1057F000D3ED007A77EE277AC7ED187A3B6893ED00
:10580000007AD7F88C30D3ED007A77EE677AC7ED5F
:10581000177A3B68043393ED007AD7F88C30043361
:10582000D3ED007A77EE277AC7ED167A3B6804331A
:1058300093ED007AD7F88C300433D3ED007A77EE0D
:10584000677AC7ED157AD7F89030043393ED007A74
:10585000D7ED177A37EE277AD7F888300433D3EDAF
:10586000007A77EE677AC7ED0B7AD7F89030D3EDF0
:10587000007A97ED157A37EE677AD7F88830D3ED4E
:10588000007A77EE277AC7ED0C7AD7F89030D3ED0F
:10589000007A97ED187A37EE677AD7F88830D3ED2B
:1058A000007A77EE677AC7ED077AD7F8903004333D
:1058B000D3ED007A97ED167A37EE677AD7F888300D
:1058C0000433D3ED007A77EE677AC7ED087AD7F81C
:1058D00090300433D3ED007A97ED177A37EE677A7C
:1058E000D7F888300433D3ED007A77EE277AC7ED06
:1058F000037AD7F8903093ED007AD7ED157A37EE2A
:10590000277AD7F88830D3ED007A77EE677AC7ED3B
:10591000047AD7F8903093ED007AD7ED187A37EE05
:10592000277AD7F88830D3ED007A3B681A1D3A60A1
:1059300077EE277AC3ED007AD7F89030043393EDF1
:10594000007AD7ED167A37EE277AD7F88830043305
:10595000D3ED007A3B681A1D3A6077EE277AC3EDE3
:10596000007AD7F8AC30043B93ED007AD7F8A43036
:10597000043BD3ED007A77EE277AC7ED167AD7F895
:10598000AC30043B93ED007AD7F8A430043BD3ED60
:10599000007A77EE677AC7ED157AD7F8AC3093EDD9
:1059A000007AD7F8A430D3ED007A77EE277AC7EDE6
:1059B000187AD7F8AC3093ED007AD7F8A430D3ED4D
:1059C000007A77EE677AC7ED177AD7F8A83093EDAB
:1059D000007AD7F8A030D3ED007A37EE677AD7EDAA
:1059E000157A77EE277AC7ED0D7AD7F8AC3093EDBC
:1059F000007AD7F8A430D3ED007A37EE677AD7F87B
:105A0000A830043BD3ED007A37EE677AD7F8A030A0
:105A1000043BD3ED007A77EE277AC7ED0E7AD7F8FC
:105A2000A830043BD3ED007A97ED167A37EE677A0B
:105A3000D7F8A030043BD3ED007A77EE677AC7ED54
:105A4000097AD7F8A830D3ED007A97ED187A37EEB7
:105A5000677AD7F8A030D3ED007A77EE677AC7ED92
:105A60000A7AD7F8A83093ED007AD7F8A030D3EDB2
:105A7000007A37EE677AD7ED157A77EE677AC7ED59
:105A8000057AD7F8A030043B93ED007AD7F8A83018
:105A9000043BD3ED007A37EE677AD7ED177A77EECD
:105AA000677AC7ED067AD7F8A83093ED007AD7ED7C
:105AB000187A37EE277AD7F8A030D3ED007AD7F8E6
:105AC000AC301A1FC7F8AC2077EE277AC3ED007A06
:105AD000D7F8A830043B93ED007AD7ED167A37EE6D
